:020000040000FA
:0400000007EF00F016
:0A00080050822DED10F0A5EF0CF072
:1006000000010002000400080010002000400080EB
:10061000000001000200040008001000200040005B
:10062000801E001200120012001E000000000000D8
:100630000004000C00040004001E00000000000084
:10064000001E0002001E0010001E0000000000003E
:10065000001E0002000E0002001E0000000000004C
:1006600000120012001E0002000200000000000044
:10067000001E0010001E0002001E0000000000000E
:10068000001E0010001E0012001E000000000000EE
:10069000001E00020004000800100000000000001E
:1006A000001E0012001E0012001E000000000000CC
:1006B000001E0012001E00020002000000000000E8
:1006C00000FFFF818181BD8D85998581AD8181FF8D
:1006D000FF97FB55A99DAB0000DF0381B85F0300C6
:1006E000004188DFFB41880000DF9B55A991CA00CB
:1006F0000000B9D0000E166E17D0000E176E1750FE
:10070000020DF3CF10F0F4CF11F010500C24D96E7D
:1007100011500D20DA6ED890DE36DD36172A070E1E
:100720001764EDD73C2A162A0F50165CD8B0120079
:10073000E4D7000E166E18D0000E176E1750020D7B
:10074000F3CF10F0F4CF11F010500C24D96E1150EB
:100750000D20DA6ED890DC32DD50DF32172A070E1A
:100760001764ECD73C06162A0F50165CD8B012005E
:10077000E3D7000E166E34D0070E176E1750106EAA
:10078000116AD890103611360CC012F00DC013F05B
:100790001050122611501322FE0E1224D96EFF0E95
:1007A0001320DA6E1750020DF3CF14F0F4CF15F0CA
:1007B00014500C24E16E15500D20E26EDECFE6FFE2
:1007C000DDCFE5FF17061750D8A4D8D70CC0D9FF46
:1007D0000DC0DAFF000EDE6E000EDD6E3D2A162A19
:1007E0000F50165CD8B01200C7D7000E166E36D068
:1007F000000E176E1750106E116AD8901036113611
:100800000CC012F00DC013F010501226115013221C
:10081000020E1224D96E000E1320DA6E1750020D4C
:10082000F3CF14F0F4CF15F014500C24E16E1550F2
:100830000D20E26EDECFE6FFDDCFE5FF172A060EC4
:100840001764D8D720EE0EF00C50D9260D50DA22BE
:10085000000EDE6E000EDD6E3D06162A0F50165C91
:10086000D8B01200C5D70E50106E116A1150000A90
:10087000D8A412001050000AD8B43CD7010AD8B44A
:1008800058D7030AD8B4B1D7010AD8A4120071D737
:1008900030D001010105016F000E356EC70E0165F4
:1008A0003CD00F0E19D001010029006F010E356EEA
:1008B000070E006532D0C80E00612FD0000E17D091
:1008C00001010129016F020E356E0F0E016525D061
:1008D000C80E016122D0000E016F1FD0010100057A
:1008E000006F030E356EC70E006517D0070E006F40
:1008F00014D03A501E6E1F6A1F50000AD8A40DD0A3
:100900001E50000AD8B4C5D7010AD8B4CCD7030A00
:10091000D8B4D6D7010AD8B4E1D7000E226E45D09C
:10092000225038C01EF01F6A1E5E000E1F5AD8905B
:100930001E361F36010E1E24D96E010E1F20DA6EE0
:10094000225038C020F0216A205E000E215AD89033
:1009500020362136030E2024E16E010E2120E26EA6
:10096000DFCFE7FF225038C01EF01F6A1E5E000E68
:100970001F5AD8901E361F36000E1E24D96E010E47
:100980001F20DA6E225038C020F0216A205E000E4F
:10099000215AD89020362136020E2024E16E010E15
:1009A0002120E26EDFCFE7FF222A2250385CD8B048
:1009B000B7D7365001010119D8A408D03750001913
:1009C000D8A404D03828386E55EC0EF0040E226EF0
:1009D0001CD02250020D010EF324D96E010EF4201A
:1009E000DA6EDE5001010119D8A40ED02250020D9A
:1009F000000EF324D96E010EF420DA6E0051DE18D9
:100A0000D8A402D0010E3E6E222A2250385CD8B003
:100A1000E0D7DDEC06F012000201B56FA50E0C6EFA
:100A2000020E0D6E000E0F6E080E0E6EF3EC0FF040
:100A3000950E0C6E020E0D6E000E0F6E080E0E6EF1
:100A4000F3EC0FF0B5C21AF01B6AB70E1C6E020E63
:100A50001D6E000E1F6E0A0E1E6E72EC08F0000E68
:100A60000201BB6F36D0B70EBB25D96EDA6A020E13
:100A7000DA22DF50D00FB66FA50E166E020E176E7B
:100A8000B651DFEC10F0A50E0C6E020E0D6E000ECE
:100A90000E6E0201BB510208050DF3CF0FF079EC89
:100AA00003F0A50E0C6E020E0D6E030E0E6EBBC291
:100AB0000FF079EC03F0A50E0C6E020E0D6E950E84
:100AC0000E6E020E0F6E010E106EEEEC07F00201BC
:100AD000BB2B030EBB6109D0B70EBB25D96EDA6AFA
:100AE000020EDA22DF50D8A4BED7C1EC11F0950E69
:100AF000136E020E146EBFEC0DF03CEC12F0000E03
:100B00001BEC11F00009D8A4FAD7000E1BEC11F071
:100B10000009D8B4FAD720EEDCF012EE85F00F0E03
:100B2000DBCFE3FFE806FCE2850E0C6E020E0D6ED5
:100B3000950E0E6E020E0F6E020E106EEEEC07F0AA
:100B4000C1EC11F0950E136E020E146EBFEC0DF099
:100B50003CEC12F0000E1BEC11F00009D8A4FAD7FF
:100B600034EC12F030EC12F01200020E4418D8A44B
:100B70000FD018C00CF019C00DF016C00EF017C041
:100B80000FF0000E116E100E106E97EC0FF01200A9
:100B900018C00CF019C00DF0000E0F6E080E0E6E8E
:100BA000F3EC0FF04404D8A405D04250D8B402D0DE
:100BB000000E1A6E000E246E000E256E2450020DDB
:100BC000F3CF1BF0F4CF1CF01B501624D96E1C5031
:100BD0001720DA6EDECF1DF0DDCF1EF025C01FF02E
:100BE000010E206E000E216E1F2A03D0D8902036F1
:100BF00021361F2EFBD71D5020161E5021162050C7
:100C00002110D8B441D01A04D8A407D025503D5C97
:100C10003C24226E3D50245C06D03C50255C3D2493
:100C2000226E24503D5C3C24236E22BE2DD02250E7
:100C3000800A780FD8A023BE27D02350800A700FD7
:100C4000D8B022D023C01BF0010E1C6E000E1D6E0A
:100C50001B2A03D0D8901C361D361B2EFBD72250E2
:100C60000C6E0D6A0CBE0D06000E0F6E020E0E6E9F
:100C70002FEC11F00C501824D96E0D501920DA6E9B
:100C80001C50DE121D50DD12252A0F0E256496D74A
:100C9000242A070E246490D71200070E4018D8A407
:100CA0004CD0000E406E000E246E800E2424D96EAF
:100CB000DA6A000EDA22FF0EDF6E190E2424D96ED6
:100CC000DA6A000EDA22000EDF6E242A060E246491
:100CD000ECD7000E246E000E206EE2EC0CF0236EBA
:100CE00023C00CF00D6A000E0F6E070E0E6E1CEC8A
:100CF0000DF00C50236E190E2324D96EDA6A000E03
:100D0000DA22DF50D8A412D0800E2424D96EDA6AF9
:100D1000000EDA2223C0DFFF190E2324D96EDA6A0F
:100D2000000EDA22010EDF6E010E206E2050D8B4C4
:100D3000D4D7242A060E2464CED7800E4024D96E40
:100D4000DA6A000EDA22DF50186E1850130D000E0A
:100D5000F324216E020EF420226E402A16C00CF0FD
:100D600017C00DF021C00EF022C00FF0000E116E62
:100D7000100E106E97EC0FF020EE10F02150D926D7
:100D80002250DA22DF503D6E20EE11F02150D9269C
:100D90002250DA22DF503C6E000E426E20EE12F03E
:100DA0002150D9262250DA22DF50446E000E0D6EFB
:100DB000000E0C6E1CEC12F01200CC0E0C6E000E2D
:100DC0000D6E000E0F6E080E0E6EF3EC0FF0000E9F
:100DD0001D6E3FD01D50020D000EF324D96E010E82
:100DE000F420DA6EDF501C6E1C50020DCC0EF32482
:100DF000D96E000EF420DA6EDECF17F0DDCF18F0DA
:100E00001D50020D010EF324D96E010EF420DA6E8E
:100E1000DF50196E1950020D010EF324F66E060E06
:100E2000F420F76E0900F5CF1AF00900F5CF1BF09A
:100E300017501A1218501B121C50020DCC0EF3241E
:100E4000D96E000EF420DA6E1AC0DEFF1BC0DDFF83
:100E50001D2A1D50385CD8B0BDD7000E1D6E1D5028
:100E60003718D8A42AD01D50020DCC0EF324D96E09
:100E7000000EF420DA6EDECF17F0DDCF18F036501A
:100E8000020D010EF324F66E060EF420F76E090033
:100E9000F5CF19F00900F5CF1AF0175019121850B4
:100EA0001A121D50020DCC0EF324D96E000EF42040
:100EB000DA6E19C0DEFF1AC0DDFF1D2A070E1D64A1
:100EC000CED7CC0E136E000E146EBFEC0DF01200D8
:100ED0000E04216E68D02128206E000E226E20C0E4
:100EE0000FF021C010F02250020DF3CF11F0F4CF1B
:100EF00012F011500C24D96E12500D20DA6EDECF94
:100F000013F0DDCF14F0102A03D0D890143213322E
:100F1000102EFBD7010E1316000E14160F2A03D045
:100F2000D890133614360F2EFBD72250020DF3CF74
:100F300015F0F4CF16F015500C24D96E16500D2074
:100F4000DA6EDECF17F0DDCF18F020C019F0010EF9
:100F50001A6E000E1B6E192A03D0D8901A361B3653
:100F6000192EFBD71A1C1C6E1B1C1D6E17501C164D
:100F700018501D1613501C1214501D122250020D31
:100F8000F3CF1EF0F4CF1FF01E500C24D96E1F506B
:100F90000D20DA6E1CC0DEFF1DC0DDFF222A070E09
:100FA00022649DD721060E50215CD8A094D7000E54
:100FB000226E2250020DF3CF0FF0F4CF10F00F503D
:100FC0000C24D96E10500D20DA6EFE0EDE16FF0EC8
:100FD000DD16222A070E2264ECD7120071D0000E13
:100FE000176E1750020DF3CF11F0F4CF12F011501D
:100FF0000C24D96E12500D20DA6E1750020DF3CF6B
:1010000013F0F4CF14F013500E24E16E14500F209F
:10101000E26EDECFE6FFDDCFE5FF172A070E17648D
:10102000E0D71200000E176E1750020DF3CF11F02B
:10103000F4CF12F011500C24D96E12500D20DA6E3C
:10104000DECF13F0DDCF14F01750020DF3CF15F003
:10105000F4CF16F015500E24D96E16500F20DA6E0C
:101060001350DE121450DD12172A070E1764DCD756
:101070001200000E176E1750020DF3CF11F0F4CFCF
:1010800012F011500C24D96E12500D20DA6EDECF02
:1010900013F0DDCF14F01750020DF3CF15F0F4CF9D
:1010A00016F015500E24D96E16500F20DA6E13501C
:1010B000DE1A1450DD1A172A070E1764DCD7120047
:1010C0001050116E126A1250000AD8A4120011506A
:1010D000000AD8B484D7010AD8B4A4D7030AD8A484
:1010E0001200C7D7000E266E000E256E000E226E6F
:1010F0001A501B10D8A411D01CC0D9FF1DC0DAFF94
:10110000300EDF6E254A262A25501C24D96E265023
:101110001D20DA6E000EDF6E12001BAE42D00A0EEA
:101120001E181F10D8A43DD0010E226E1A6C1B1E73
:10113000D8B01B2A36D01AC00CF01BC00DF01EC050
:101140000EF01FC00FF01CEC0DF00CC023F00DC012
:1011500024F024BE06D0245006E10A0E235CD8B049
:1011600002D0300E01D0570E2324206E000E242012
:10117000216E25501C24D96E26501D20DA6E20C009
:10118000DFFF254A262A1AC00CF01BC00DF01EC036
:101190000EF01FC00FF061EC0BF00CC01AF00DC088
:1011A0001BF01A501B10D8A4C6D72250D8B40AD0AE
:1011B00025501C24D96E26501D20DA6E2D0EDF6EB0
:1011C000254A262A25501C24D96E26501D20DA6E69
:1011D000000EDF6E1CC011F01DC012F025C013F010
:1011E00026C014F008EC0FF01200C10E136E060EAC
:1011F000146E66EC0CF0000E1BEC11F00009D8A484
:10120000FAD7000E07EC11F00009D8A4F4D7000EAD
:101210001BEC11F00009D8A406D0000E07EC11F069
:101220000009D8B4F4D7000E1BEC11F0E806D8A4DE
:101230001DD0000E2D6E000E2C6ED8902C34D96E61
:101240002D34DA6E1B0ED926000EDA22000EDE6E69
:10125000FF0EDD6E2C4A2D2A2DBEEFD72D5004E156
:10126000080E2C5CD8A0E9D7000E22D0000E07ECA7
:1012700011F0E806D8A41DD0000E2D6E000E2C6EC5
:10128000D8902C34D96E2D34DA6E1B0ED926000E70
:10129000DA22FF0EDE6E000EDD6E2C4A2D2A2DBEE8
:1012A000EFD72D5004E1080E2C5CD8A0E9D7010E31
:1012B0002B6EC1EC11F01B0E0C6E000E0D6E8C0E21
:1012C0000E6E000E0F6E020E106EEEEC07F03CEC90
:1012D00012F0000E1BEC11F00009D8A4FAD7000E92
:1012E00007EC11F00009D8A4F4D72B50120024EC1D
:1012F0000EF06FEC11F0000EF3EC10F0326E325085
:101300000CEC05F0CC0E166E000E176E4DEC06F0D0
:10131000CC0E136E000E146EBFEC0DF0010E2F6E8E
:10132000B2EC0EF00009D8A405D03350D8A402D0F6
:10133000000E2F6E2F50D8B402D0010E01D0000E37
:10134000336E3F50D8B40AD0000E3F6ECC0E256EDF
:10135000000E266EEAEC09F0010E336E4150D8B44F
:1013600008D0BC0E236E000E246EA3EC0BF0010E11
:10137000336E3350D8B420D0BC0E0C6E000E0D6E00
:10138000AC0E0E6E000E0F6E000E106EEEEC07F03F
:10139000CC0E0C6E000E0D6EAC0E0E6E000E0F6EAF
:1013A000010E106EEEEC07F0AC0E136E000E146E14
:1013B000BFEC0DF0000E336E3E50D8B4AFD732C044
:1013C0000EF043C00FF0000EACEC11F043500CECEB
:1013D00005F01200010E276E25C00CF026C00DF09E
:1013E00011EC10F00009D8B415D0000E276E25C0FE
:1013F0000CF026C00DF0BC0E0E6E000E0F6E010E2E
:10140000106EEEEC07F025C016F026C017F04DEC7C
:1014100006F040D025C00CF026C00DF0000E0E6E78
:10142000010E0F6E79EC03F025C00CF026C00DF014
:10143000BC0E0E6E000E0F6EF2EC0DF00009D8B46B
:101440002BD0000E276E25C00CF026C00DF0010E2B
:101450000E6E010E0F6E79EC03F025C00CF026C065
:101460000DF0BC0E0E6E000E0F6E010E106EEEEC47
:1014700007F025C016F026C017F04DEC06F025C089
:101480000CF026C00DF0BC0E0E6E000E0F6EF2ECCE
:101490000DF03E6E010E416E000E0D6E000E0C6ED4
:1014A0001CEC12F0275012003B50D8B41200CC0EA6
:1014B000166E000E176E9C0E186E000E196E010E41
:1014C0001A6EB5EC05F0CC0E0C6E000E0D6E8AECAB
:1014D0000DF0266E9C0E0C6E000E0D6E8AEC0DF05B
:1014E0002618D8A412009C0E0C6E000E0D6EBC0EB9
:1014F0000E6E000E0F6EF2EC0DF00009D8A4120073
:10150000C1EC11F09C0E0C6E000E0D6ECC0E0E6E2A
:10151000000E0F6E000E106EEEEC07F03CEC12F0B9
:101520004250D8A402D0010E01D0000E426E12002B
:101530003B50D8B41200CC0E0C6E000E0D6E89EC30
:1015400011F00009D8A412009C0E0C6E000E0D6E56
:10155000CC0E0E6E000E0F6E000E116E100E106E81
:1015600097EC0FF09C0E0C6E000E0D6E020E0E6EC0
:10157000010E0F6E79EC03F09C0E0C6E000E0D6EDA
:10158000BC0E0E6E000E0F6EF2EC0DF00009D8A42A
:101590001200C1EC11F09C0E0C6E000E0D6ECC0E04
:1015A0000E6E000E0F6E000E106EEEEC07F03CECAF
:1015B00012F0010E416E1200000000000000010058
:1015C0000300010000000000040000000000000112
:1015D0000001000100010000000000040001000003
:1015E00000000000030001000100000000000400F2
:1015F00000000000000000010001000300000000E6
:1016000000040000000000000000030003000000D0
:1016100000000000030102000000000000020003BF
:1016200000010000000000040101000000000000B3
:0D16300001000300020000000000040101A1
:10163E003B50D8B41200CC0E0C6E000E0D6E61EC49
:10164E0011F00009D8A41200CC0E0C6E000E0D6E17
:10165E009C0E0E6E000E0F6E000E106EEEEC07F06E
:10166E009C0E0C6E000E0D6E030E0E6E010E0F6EA6
:10167E0079EC03F09C0E0C6E000E0D6EBC0E0E6E11
:10168E00000E0F6EF2EC0DF00009D8A41200C1ECA2
:10169E0011F09C0E0C6E000E0D6ECC0E0E6E000E2A
:1016AE000F6E000E106EEEEC07F03CEC12F0010E19
:1016BE00416E1200000E116E0FAE06D00E6C0F1E94
:1016CE00D8B00F2A010E116E0DAE06D00C6C0D1E89
:1016DE00D8B00D2A010E111A000E136E000E126EE6
:1016EE000E500F10D8B41CD0010E106E04D0D8902E
:1016FE000E360F36102A0FAEFAD7D8901236133692
:10170E000E500C5C0F500D58D8A005D00E500C5E2C
:10171E000F500D5A1280D8900F320E32102EEDD778
:10172E001150D8B404D0126C131ED8B0132A12C0A4
:10173E000CF013C00DF01200000E2E6E000E2C6E6B
:10174E00000E2D6E2D50020DF3CF25F0F4CF26F0A6
:10175E0025502324D96E26502420DA6EDECF27F0B2
:10176E00DDCF28F02EC029F0010E2A6E000E2B6E52
:10177E00292A03D0D8902A362B36292EFBD727506C
:10178E002A1628502B162A502B10D8A42C2A2D2A74
:10179E00070E2D64D7D7080E2C18D8A409D023C055
:1017AE000CF024C00DF02EC00EF068EC07F0432AAA
:1017BE002E2A0F0E2E64C2D7120000018807D8A061
:1017CE008907000E026E010E016EFEEC11F02BEC7D
:1017DE0012F0400E015C060E0258D8A006D0000E84
:1017EE00026E000E016E26EC12F02BEC12F001C010
:1017FE0003F002C004F0030E066E200E056E76ECAA
:10180E000FF003500410D8B4F0EC11F02BEC12F0E2
:10181E0001C003F002C004F0000E066EC80E056E85
:10182E0076EC0FF003500410D8B4F7EC11F025EC61
:10183E000CF0DEEC0EF0010E346E12000001ED51D4
:10184E00D8B41200F50E016E000E026E4A0E036E33
:10185E00000E046E81A002D0010E01D0000E54ECD9
:10186E000DF0F30E016E000E026E490E036E000EA9
:10187E00046E81A202D0010E01D0000E54EC0DF0C8
:10188E00F10E016E000E026E4B0E036E000E046E14
:10189E0081A402D0010E01D0000E54EC0DF0EF0E1B
:1018AE00016E000E026E480E036E000E046E81A6CF
:1018BE0002D0010E01D0000E54EC0DF01200C1EC5E
:1018CE0011F08C0E0C6E000E0D6E000E0F6E080ECB
:1018DE000E6EF3EC0FF0000E1A6E000E196E19C09C
:1018EE0015F01AC016F0D8901536163613C017F02C
:1018FE0014C018F0155017261650182217C0F6FFF0
:10190E0018C0F7FFD8901934D96E1A34DA6E8C0ECF
:10191E00D926000EDA220900F5CFDEFF0800F5CF3A
:10192E00DDFF194A1A2A1ABEDAD71A5004E1080E38
:10193E00195CD8A0D4D73CEC12F01200B80EF66E9B
:10194E00150EF76E000EF86E02EE00F010EE85F03A
:10195E000900F5CFEEFFE550E150FAE1960EF66E76
:10196E00230EF76E000EF86E00EEDCF010EE10F0A7
:10197E000900F5CFEEFFE550E150FAE101EE00F07F
:10198E0011EE00F0EE6AE550E150FCE1E250FAE1B2
:10199E0000EE80F05C0EEE6AE806FDE100EE34F03B
:1019AE00180EEE6AE806FDE150905092000EF86EA9
:1019BE000001A3EF10F04EC00CF04FC00DF0D89008
:1019CE000D320C32D8900D320C32D8900D320C32C2
:1019DE00D8904F300F6E4E300E6E0C500E1A0D50BA
:1019EE000F1A4F380F0B0E1A000E0F1A4E500E1AFA
:1019FE004F500F1A010E0E14106E116A10C00CF01B
:101A0E0011C00DF00F0ED8900C360D36E82EFBD708
:101A1E00D8904F300F6E4E300E6E0C500E104E6E24
:101A2E000D500F104F6E4E501200000E116E0DAE77
:101A3E0006D00C6C0D1ED8B00D2A010E116E0FAE15
:101A4E0004D00E6C0F1ED8B00F2A0E500F10D8B443
:101A5E0018D0010E106E04D0D8900E360F36102A04
:101A6E000FAEFAD70E500C5C0F500D58D8A004D004
:101A7E000E500C5E0F500D5AD8900F320E32102EA3
:101A8E00F1D71150D8B404D00C6C0D1ED8B00D2A5D
:101A9E000CC00CF00DC00DF01200076E0750D8A44C
:101AAE0023D001C0D9FF02C0DAFF010EDBAE09D090
:101ABE0001C0D9FF02C0DAFF320EDE6E000EDD6EFF
:101ACE00120001C0D9FF02C0DAFFDE06000EDD5A99
:101ADE00DE2818E1DE28D8A4120003C0D9FF04C006
:101AEE00DAFF010EDF6E120001C0D9FF02C0DAFF6D
:101AFE00FF0EDE6EFF0EDD6E03C0D9FF04C0DAFFEF
:101B0E00000EDF6E1200000E156E000E166E000E29
:101B1E00176E1650020DF3CF0EF0F4CF0FF00E50DD
:101B2E000C24D96E0F500D20DA6EDECF10F0DDCF03
:101B3E0011F017C012F0010E136E000E146E122A61
:101B4E0003D0D89013361436122EFBD7105013161E
:101B5E001150141613501410D8A4152A172A0F0E4C
:101B6E001764D7D7162A070E1664D1D71550120050
:101B7E00C1EC11F08C0E0C6E000E0D6E000E0F6E81
:101B8E00080E0E6EF3EC0FF0000E166E000E156EB4
:101B9E00D8901534D96E1634DA6E1350D9261450E7
:101BAE00DA22D8901534E16E1634E26E8C0EE126F0
:101BBE00000EE222DECFE6FFDDCFE5FF154A162A44
:101BCE0016BEE6D7165004E1080E155CD8A0E0D775
:101BDE003CEC12F01200000E186E1850020DF3CFEE
:101BEE0010F0F4CF11F010500E24D96E11500F20BA
:101BFE00DA6EDECF12F0DDCF13F01850020DF3CFF8
:101C0E0014F0F4CF15F014500C24D96E15500D208D
:101C1E00DA6EDECF16F0DDCF17F012501616135017
:101C2E00171616501710D8B402D0010E1200182A2B
:101C3E00070E1864D2D7000E1200000E3D6E000E75
:101C4E003C6E000E436E000E3F6E000E416E0001A4
:101C5E008769070E406E010E3B6E000E3E6ECC0E77
:101C6E000C6E000E0D6E000E0F6E080E0E6EF3EC67
:101C7E000FF0BC0E0C6E000E0D6E000E0F6E080EE9
:101C8E000E6EF3EC0FF0AC0E0C6E000E0D6E000E21
:101C9E000F6E080E0E6EF3EC0FF01200000E156EA6
:101CAE00080E95EC11F0376E100E95EC11F0366EA5
:101CBE00000E166E1BD01650020D000EF324D96EB8
:101CCE00010EF420DA6E3750DE18D8A40ED016505E
:101CDE00020D010EF324D96E010EF420DA6E365089
:101CEE00DE18D8A402D0010E156E162A3850165CD6
:101CFE00D8A0E1D71504D8A41200D0D7000E396EA3
:101D0E00030E386E030E356E000E176E1750020D51
:101D1E00010EF324D96E010EF420DA6E030EDF6E7F
:101D2E001750020D000EF324D96E010EF420DA6E58
:101D3E0017500408DF6E172A030E1764E7D7030E39
:101D4E000101016F030E006F010E3A6E55EC0EF09D
:101D5E00010E3B6E1200000E286E010ECBEC10F041
:101D6E000009D8B404D098EC0AF0010E286E010ECA
:101D7E00B7EC10F00009D8B404D01FEC0BF0010E34
:101D8E00286E010E07EC11F00009D8B404D054EC03
:101D9E000AF0010E286E010E1BEC11F00009D8B4EA
:101DAE0004D0A1EC11F0010E286E28501200000193
:101DBE00EC51D8B4120047C001F0010E026E012A98
:101DCE0002D0D8900236012EFCD70250056E475035
:101DDE00020D8C0EF324D96E000EF420DA6EDECFD7
:101DEE0003F0DDCF04F0000E836E000E826E05C090
:101DFE0080FF031C826E041C836E472A070E471653
:101E0E001200000E176E000E166EFF0E1324186EC3
:101E1E00FF0E1420196E13D0165011240C6E17508D
:101E2E0012200D6E185011240E6E195012200F6EC6
:101E3E0061EC10F0164A172A1806D8A01906185089
:101E4E00165C1750800A156E1950800A1558D8B0B6
:101E5E001200E2D785EC0EF07CEC11F0010EF3ECE3
:101E6E0010F0276E27500CEC05F0000E3E6EB7EC0E
:101E7E000FF03904D8A404D0000E396E48EC04F0EB
:101E8E003E50D8B4F4D727C00EF038C00FF0010E74
:101E9E00ACEC11F038500CEC05F012000CC012F046
:101EAE000DC013F00EC014F00FC015F00FD014C0FB
:101EBE00F6FF15C0F7FF12C0D9FF13C0DAFF0800F6
:101ECE00F5CFDFFF144A152A124A132A1006D8A09E
:101EDE0011061028ECE11128D8B41200E8D70550ED
:101EEE000610D8B418D0010E076E04D0D89005365F
:101EFE000636072A06AEFAD70550035C065004587C
:101F0E00D8A004D00550035E0650045AD89006326D
:101F1E000532072EF1D703C003F004C004F01200FF
:101F2E000CC012F00DC013F00EC014F00FC015F05F
:101F3E000ED014C0D9FF15C0DAFF12C0E1FF13C0D6
:101F4E00E2FFDFCFE7FF144A152A124A132A1006C2
:101F5E00D8A011061028EDE11128D8B41200E9D747
:101F6E00010ECBEC10F00009D8A405EC12F0010E16
:101F7E00B7EC10F00009D8A4E2EC11F0010E07EC5A
:101F8E0011F00009D8A4DBEC11F0010E1BEC11F0DE
:101F9E000009D8B412000BEC12F01200D39E700E92
:101FAE00D312D350FC0B0209D36E0F0EC112000ECA
:101FBE00926E000E806E9368000E816EF19E000E82
:101FCE00946E000E826E000E956E000E836E52ECB5
:101FDE0011F0D09EF28E1200000E126E11D0125021
:101FEE00020DF3CF10F0F4CF11F010500C24D96E77
:101FFE0011500D20DA6E000EDE6E000EDD6E122A0E
:10200E001250106E116A0E50105C0F501158D8B04D
:10201E001200E5D7000E126E1250020DF3CF0EF025
:10202E00F4CF0FF00E500C24D96E0F500D20DA6E37
:10203E00DECF10F0DDCF11F011AE02D0010E120086
:10204E00122A070E1264E8D7000E12000600D9CF2E
:10205E0008F0DACF09F0F3CF0AF0F4CF0BF0F2A4C8
:10206E0007D0F294FF0ED76E820ED66EE4EC0BF014
:10207E000BC0F4FF0AC0F3FF09C0DAFF08C0D9FF96
:10208E00509211000D6EA696A6840DC0A9FF0CC02D
:10209E00A8FFA69EA69C11EC12F0F29E550EA76EFE
:1020AE00AA0EA76EA682F28EA6B2FED7A6B6EBD762
:1020BE00A69412000CC0D9FF0DC0DAFFDF50106ECF
:1020CE000EC0D9FF0FC0DAFF0CC0E1FF0DC0E2FF5A
:1020DE00DFCFE7FF0EC0D9FF0FC0DAFF10C0DFFF62
:1020EE0012000001F569F669000E4A6EF369F46993
:1020FE00000E496EF169F269000E4B6E010EF06F23
:10210E00F40EEF6F000E486E010EED6F12000D6EA5
:10211E00080E0E6E000E0F6ED8900D340F340F6E2B
:10212E00D8900D360C500F5CD8A002D00C500F5E1C
:10213E000E2EF2D70F501200D5EC0FF0E9EC11F085
:10214E0078EC10F038EC12F0F5EC08F00001EE6FC0
:10215E0021EC12F00C5017EC12F042EC11F0FDD7FE
:10216E000C6E4950D8B40ED0010E0001F46FF40E6F
:10217E00F36F0C50D8A402D0010E01D0000E496EA0
:10218E00010E1200000E12000C6E4A50D8B40ED082
:10219E00010E0001F66FF40EF56F0C50D8A402D0AC
:1021AE00010E01D0000E4A6E010E1200000E12003A
:1021BE00186E16C00CF017C00DF01850100D210E31
:1021CE00F3240E6E060EF4200F6E000E116E100E1E
:1021DE00106E55EC0FF012000E6E0E50D3EC11F087
:1021EE000F6E0F28D8A402D0000E0F6E0F50D8A479
:1021FE0005D0000E0C6E0E5049EC10F00F50120070
:10220E000C6E4B50D8B40ED0010E0001F26FF40ECE
:10221E00F16F0C50D8A402D0010E01D0000E4B6EFF
:10222E00010E1200000E12000C6E4850D8B40ED0E3
:10223E00010E0001F06FF40EEF6F0C50D8A402D017
:10224E00010E01D0000E486E010E1200000E12009B
:10225E000C500E02F3CF10F0F4CF11F00C500F0211
:10226E00F35011260D500E02F350112610C00CF033
:10227E0011C00DF01200C1EC11F0E9EC11F03CECC4
:10228E0012F00001EE51D8B403D077EC09F0120031
:10229E0031EC0FF01200D550F80B0309D56ED59620
:1022AE00D59AD58EFF0ED76E820ED66EF294F28A26
:1022BE00D58E120020EE0EF00C50D9260D50DA22DB
:1022CE00DE50DE10D8B402D0010E1200000E120045
:1022DE00E10E136E060E146E66EC0CF00D0E0D6E06
:1022EE00AC0E0C6EB7EC11F01200D10E136E060E82
:1022FE00146E66EC0CF00D0E0D6EAC0E0C6EB7EC93
:10230E0011F012000CC0D9FF0DC0DAFFDE50DE1046
:10231E00D8B402D0010E1200000E1200126EE2ECC2
:10232E000CF0136E12C00CF013508EEC10F0136EF6
:10233E00135012003B50D8B41200CC0E256E000E76
:10234E00266EEAEC09F00009F6D7106E0F500E5CFF
:10235E00D8B012000FC00CF0105049EC10F0120063
:10236E000CC088F00DC089F0000188518911D8B4D5
:10237E001200FAD70001EC51D8B4120011EC12F091
:10238E00000E0001EC6F1200FFFFFFFFFFFFFFFFCB
:10239E00FFFFFFFFFFFFFFFF0C6E0CC0A9FFA69E05
:1023AE00A69CA680A8501200020E3518D8B41200B2
:1023BE00000E3A6E1200030E3518D8B41200010E3C
:1023CE003A6E1200000E0D6E000E0C6E1CEC12F02A
:1023DE0012003B50D8B402D0010E3F6E3B5012009B
:1023EE003B50D8B402D0010E396E3B501200015052
:1023FE004C244C6E02504D204D6E12003504D8B454
:10240E001200030E3A6E12003550D8B41200020EAE
:10241E003A6E1200000E346E3450D8A41200FCD75F
:10242E000C6E0CC04EF04F6A12000CC04CF00DC07A
:10243E004DF012004CC00CF04DC00DF0120001C05A
:10244E004CF002C04DF012004CC001F04DC002F035
:10245E001200010E0001ED6F1200000E0001ED6F73
:10246E001200010E0001EC6F1200010E0001EC6F64
:02247E0012004A
:020000040020DA
:08000000FFFFFFFFFFFFFFFF00
:020000040030CA
:0E000000FF081F1EFF8181FF0FC00FE00F40A1
:00000001FF
