:020000040000FA
:0400000007EF00F016
:0A00080063828AED05F0DEEF0CF0D4
:1006000000010002000400080010002000400080EB
:10061000000001000200040008001000200040005B
:1006200080FFFF818181BD8D85998581AD8181FFAD
:10063000FF1E001200120012001E00000000000049
:100640000004000C00040004001E00000000000074
:10065000001E0002001E0010001E0000000000002E
:10066000001E0002000E0002001E0000000000003C
:1006700000120012001E0002000200000000000034
:10068000001E0010001E0002001E000000000000FE
:10069000001E0010001E0012001E000000000000DE
:1006A000001E00020004000800100000000000000E
:1006B000001E0012001E0012001E000000000000BC
:1006C000001E0012001E00020002000000000000D8
:1006D0000097FB55A99DAB0000DF0381B85F0300C5
:1006E000004188DFFB41880000DF9B55A991CA00CB
:1006F00000003450D8B453D0D8EC10F0000E346E53
:10070000010E2F6EF40E2E6ED5EC10F00704D8A457
:1007100041D0180E476E000E486E8FEC10F00009A5
:10072000D8A43DD0800E476E000E486E180E496E5C
:10073000000E4A6E000E4C6E100E4B6ED3EC0EF097
:10074000800E476E000E486E020E496E010E4A6E14
:1007500050EC06F0800E476E000E486E900E496E0B
:10076000000E4A6E7CEC0EF00009D8A418D0C0EC44
:1007700010F0800E476E000E486E180E496E000E87
:100780004A6E000E4B6EA4EC0AF0D2EC10F0010E93
:10079000116E05D00804D8B402D0030E0D6E33508C
:1007A000D8B452D0D8EC10F0000E336E010E2D6E7E
:1007B000F40E2C6ED5EC10F00704D8A43FD0180E20
:1007C000476E000E486E81EC10F00009D8A43CD0B2
:1007D000180E476E000E486E800E496E000E4A6E6F
:1007E000000E4B6EA4EC0AF0800E476E000E486EB1
:1007F000030E496E010E4A6E50EC06F0800E476EF5
:10080000000E486E900E496E000E4A6E7CEC0EF0A3
:100810000009D8A419D0C0EC10F0800E476E000E6D
:10082000486E180E496E000E4A6E000E4B6EA4EC18
:100830000AF0D2EC10F0010E116E06D0030E08186B
:10084000D8B402D0010E0D6E3250D8B454D0D8ECCA
:1008500010F0000E326E010E2B6EF40E2A6ED5ECE7
:1008600010F00704D8A441D0180E536E000E546E39
:10087000800E556E000E566E010E576E0BEC09F091
:10088000180E476E000E486E47EC0EF0616E800E3B
:10089000476E000E486E47EC0EF06118D8A42BD0BE
:1008A000800E476E000E486E900E496E000E4A6E26
:1008B0007CEC0EF00009D8A41ED0C0EC10F0800E25
:1008C000476E000E486E180E496E000E4A6E000EFE
:1008D0004B6EA4EC0AF0D2EC10F01350D8A402D066
:1008E000010E01D0000E136E06D0020E0818D8B407
:1008F00002D0000E0D6E3150D8B412000704D8A4F7
:100900000AD0180E5A6E000E5B6E13EC0BF0000945
:10091000D8B406D0F6D70850D8B402D0020E0D6E67
:10092000D8EC10F0000E316E7F0E296E2868D5ECE1
:1009300010F0120030D001010105016F000E086EA9
:10094000C70E01653CD00F0E19D001010029006FC0
:10095000010E086E070E006532D0C80E00612FD060
:10096000000E17D001010129016F020E086E0F0E53
:10097000016525D0C80E016122D0000E016F1FD085
:1009800001010005006F030E086EC70E006517D049
:10099000070E006F14D00D50556E566A5650000A5F
:1009A000D8A40DD05550000AD8B4C5D7010AD8B480
:1009B000CCD7030AD8B4D6D7010AD8B4E1D7000EF1
:1009C0005D6E6DD05D50556E566A551E561E554A69
:1009D000562A0B50576E586A555057265650582273
:1009E000D89057365836010E5726000E5822000E62
:1009F0005724D96E010E5820DA6E5D50596E5A6A2E
:100A0000591E5A1E594A5A2A0B505B6E5C6A59503D
:100A10005B265A505C22D8905B365C36030E5B2610
:100A2000000E5C22000E5B24E16E010E5C20E26E83
:100A3000DFCFE7FF5D50556E566A551E561E554A6C
:100A4000562A0B50576E586A555057265650582202
:100A5000D89057365836000E5724D96E010E5820BC
:100A6000DA6E5D50596E5A6A591E5A1E594A5A2AF0
:100A70000B505B6E5C6A59505B265A505C22D890D2
:100A80005B365C36020E5B26000E5C22000E5B2499
:100A9000E16E010E5C20E26EDFCFE7FF5D2A5D5064
:100AA0000B5CD8B08FD7095001010119D8A408D028
:100AB0000A500019D8A404D00B280B6E11EC0EF0CC
:100AC000040E5D6E20D05D50020D010EF326000E67
:100AD000F422000EF324D96E010EF420DA6EDE50FB
:100AE00001010119D8A40ED05D50020D000EF324AF
:100AF000D96E010EF420DA6E0051DE18D8A402D0AF
:100B0000010E126E5D2A5D500B5CD8B0DCD712EC82
:100B100007F012000600D9CF40F0DACF41F0F3CF52
:100B200042F0F4CF43F0F2A4B1D0F294FF0ED76EAE
:100B3000820ED66E0106D8A00206034A042AE80EE9
:100B4000035C030E0458D8A004D0000E046E000EFF
:100B5000036E1750D8B43CD02E0E356E000E366E94
:100B6000340E376E000E386E81A002D0010E01D017
:100B7000000EDAEC0DF02C0E356E000E366E330ED4
:100B8000376E000E386E81A202D0010E01D0000E29
:100B9000DAEC0DF02A0E356E000E366E320E376E20
:100BA000000E386E81A402D0010E01D0000EDAECE6
:100BB0000DF0280E356E000E366E310E376E000EBB
:100BC000386E81A602D0010E01D0000EDAEC0DF0D5
:100BD0000704D8A40FD0200E031806E1030E041852
:100BE000D8A402D0010E01D0000E3C6E3D6A3C50EC
:100BF000101210D003C035F004C036F0000E386E6D
:100C0000C80E376E6BEC0FF035503610D8A402D0FA
:100C1000010E0C6E0650D8B437D030C03CF0010E37
:100C20003D6E3C2A02D0D8903D363C2EFCD73D503C
:100C3000466E3050020D900EF324D96E000EF42053
:100C4000DA6EDECF3CF0DDCF3DF03050020D180EF5
:100C5000F324D96E000EF420DA6EDECF3EF0DDCF45
:100C60003FF03C503E10446E3D503F10456E000E2C
:100C7000836E000E826E46C080FF441C826E451C4F
:100C8000836E302A070E3016010E056E43C0F4FF46
:100C900042C0F3FF41C0DAFF40C0D9FF63921100A8
:100CA000ACD0000E4F6E15D0000E506E070E506483
:100CB00001D00DD05050020DF3504724D96EF4509E
:100CC0004820DA6ED890DE36DD36502AEFD70E2A6D
:100CD0004F2A4A504F5CD8B01200E6D7000E4F6E34
:100CE00016D0000E506E070E506401D00ED050503A
:100CF000020DF3504724D96EF4504820DA6ED89094
:100D0000DC32DD50DF32502AEED70E064F2A4A5031
:100D10004F5CD8B01200E5D7000E4F6E31D0070EF1
:100D2000506E5050D8B422D0FE0E4B6EFF0E4C6E5B
:100D300050504D6E4E6AD8904D364E364B504D2623
:100D40004C504E224D504724D96E4E504820DA6EFA
:100D50005050020DF3504724E16EF4504820E26EEB
:100D6000DECFE6FFDDCFE5FF5006DBD747C0D9FF7A
:100D700048C0DAFF000EDE6E000EDD6E0F2A4F2A2D
:100D80004A504F5CD8B01200CAD7000E4F6E30D018
:100D9000000E506E060E506401D01ED050504B6EA7
:100DA0004C6AD8904B364C36020E4B26000E4C2225
:100DB0004B504724D96E4C504820DA6E5050020DEB
:100DC000F3504724E16EF4504820E26EDECFE6FF98
:100DD000DDCFE5FF502ADED720EE0EF04750D926B2
:100DE0004850DA22000EDE6E000EDD6E0F064F2A2E
:100DF0004A504F5CD8B01200CBD749504B6E4C6A6A
:100E00004C50000AD8A412004B50000AD8B449D75D
:100E1000010AD8B463D7030AD8B4B7D7010AD8A453
:100E200012007AD7800E476E000E486E000E4A6E92
:100E3000080E496EDCEC0FF0000E546E43D0545097
:100E4000020D000EF324D96E010EF420DA6EDF508D
:100E5000536E5350020D800EF324D96E000EF42011
:100E6000DA6EDECF4EF0DDCF4FF05450020D010EA2
:100E7000F326000EF422000EF324D96E010EF420A6
:100E8000DA6EDF50506E5050020D010EF324F66EF4
:100E9000060EF420F76E0900F5CF51F00900F5CFEA
:100EA00052F04E5051124F5052125350020D800EBC
:100EB000F324D96E000EF420DA6E51C0DEFF52C06A
:100EC000DDFF542A54500B5CD8B0B9D7000E546ED5
:100ED000070E546401D030D054500A18D8A42AD038
:100EE0005450020D800EF324D96E000EF420DA6EF9
:100EF000DECF4EF0DDCF4FF00950020D010EF3248E
:100F0000F66E060EF420F76E0900F5CF50F00900DA
:100F1000F5CF51F04E5050124F5051125450020D17
:100F2000800EF324D96E000EF420DA6E50C0DEFF7E
:100F300051C0DDFF542ACCD7C0EC10F0180E476E1C
:100F4000000E486E000E4A6E080E496EDCEC0FF083
:100F5000000E546E070E546401D016D05450020D8A
:100F6000800EF324D96E000EF420DA6E5450020D78
:100F7000180EF324E16E000EF420E26EDECFE6FFE1
:100F8000DDCFE5FF542AE6D7D2EC10F012000001C5
:100F9000B06FC0EC10F0800E476E000E486E000E71
:100FA0004A6E080E496EDCEC0FF0180E476E000E0C
:100FB000486E000E4A6E080E496EDCEC0FF0900E83
:100FC000476E000E486E000E4A6E080E496EDCEC4D
:100FD0000FF0B0C055F0566AB20E576E000E586E44
:100FE000000E5A6E0A0E596EA6EC09F0000E0001B2
:100FF000B66F39D0B651010DB20EF324D96E000E82
:10100000F420DA6EDF50D00FB16F800E516E000EFB
:10101000526EB15138EC10F0800E476E000E486EE3
:10102000000E496E0001B6510008020F050DF3CF06
:101030004AF050EC06F0800E476E000E486E030E2C
:10104000496EB6C04AF050EC06F0800E476E000EB6
:10105000486E180E496E000E4A6E010E4B6EA4ECDF
:101060000AF00001B62B030EB6610BD0B651010D8C
:10107000B20EF324D96E000EF420DA6EDF50D8A43D
:10108000B9D7D2EC10F03150D8A4FDD73150D8B434
:10109000FDD7C0EC10F020EEB7F010EEA0F00F0E70
:1010A000DBCFE3FFE806FCE2A00E476E000E486EC1
:1010B000180E496E000E4A6E020E4B6EA4EC0AF03A
:1010C000D2EC10F03150D8A4FDD7D8EC10F0010EBE
:1010D000296EF40E286ED5EC10F01200C0EC10F062
:1010E000800E476E000E486E000E4A6E080E496E66
:1010F000DCEC0FF0180E476E000E486E000E4A6EC4
:10110000080E496EDCEC0FF0900E476E000E486E34
:10111000000E4A6E080E496EDCEC0FF0000E5F6E9A
:10112000070E5F6401D018D05F50020D210EF3242A
:10113000F66E060EF420F76E5F50020D180EF324C3
:10114000D96E000EF420DA6E0900F5CFDEFF08003C
:10115000F5CFDDFF5F2AE4D7D2EC10F03150D8A4F0
:10116000FDD73250D8A4FAD73150D8A403D032508A
:10117000D8B4FAD73104D8A416D0000E076E000EEA
:101180005F6E070E5F6401D027D05F50020D4F0ED7
:10119000F324D96E000EF420DA6E000EDE6EFF0E20
:1011A000DD6E5F2AEED73204D8A416D0010E076E8A
:1011B000000E5F6E070E5F6401D00ED05F50020D0F
:1011C0004F0EF324D96E000EF420DA6EFF0EDE6EA1
:1011D000000EDD6E5F2AEED7C0EC10F04F0E476EAA
:1011E000000E486E180E496E000E4A6E020E4B6ECF
:1011F000A4EC0AF0D2EC10F03150D8A4FDD7325054
:10120000D8A4FAD7D8EC10F0010E296EF40E286E8F
:10121000D5EC10F01200020E1618D8A40FD055C04D
:1012200047F056C048F053C049F054C04AF0000E91
:101230004C6E100E4B6ED3EC0EF0120055C047F002
:1012400056C048F0000E4A6E080E496EDCEC0FF0F6
:101250001604D8A405D01350D8B402D0000E576E8F
:10126000000E5F6E070E5F6401D01200000E606E0C
:101270000F0E606401D068D05F50020DF35053240C
:10128000D96EF4505420DA6EDECF58F0DDCF59F02D
:1012900060C05AF0010E5B6E000E5C6E5A2A03D0DD
:1012A000D8905B365C365A2EFBD758505B16595097
:1012B0005C165B505C10D8B445D05704D8A409D054
:1012C000605000080F240E245D6E0F5000085F244C
:1012D00008D00E50000860240F245D6E5F50000897
:1012E0000F240E245E6E5DBE2DD05D50800A780FF7
:1012F000D8A05EBE27D05E50800A700FD8B022D032
:101300005EC058F0010E596E000E5A6E582A03D076
:10131000D89059365A36582EFBD75D504D6E4E6ACE
:101320004DBE4E06000E506E020E4F6E5FEC10F07A
:101330004D505524D96E4E505620DA6E5950DE125B
:101340005A50DD12602A94D75F2A8CD7000E616E46
:10135000000E606E000E5D6E55505610D8A413D06E
:1013600060505724D96E61505820DA6E300EDF6E0F
:10137000604A612A60505724D96E61505820DA6E55
:10138000000EDF6E120056AE42D00A0E59185A10E7
:10139000D8A43DD0010E5D6E556C561ED8B0562AAD
:1013A00036D055C047F056C048F059C049F05AC031
:1013B0004AF0A2EC0DF047C05EF048C05FF05FBE9F
:1013C00006D05F5006E10A0E5E5CD8B002D0300E47
:1013D00001D0570E5E245B6E000E5F205C6E605085
:1013E0005724D96E61505820DA6E5BC0DFFF604A27
:1013F000612A55C047F056C048F059C049F05AC05C
:101400004AF020EC0DF047C055F048C056F055505A
:101410005610D8A4C6D75D50D8B40AD0605057240F
:10142000D96E61505820DA6E2D0EDF6E604A612A47
:1014300060505724D96E61505820DA6E000EDF6E6E
:1014400057C04CF058C04DF060C04EF061C04FF036
:10145000FEEC0EF012004904566E5ED05628556E12
:10146000000E576E070E576401D055D055C04AF094
:1014700056C04BF05750020DF3504724D96EF4502C
:101480004820DA6EDECF4CF0DDCF4DF04B2A03D092
:10149000D8904D324C324B2EFBD7010E4C16000E1D
:1014A0004D164A2A03D0D8904C364D364A2EFBD7DB
:1014B0005750020DF3504724D96EF4504820DA6E8D
:1014C000DECF4EF0DDCF4FF055C050F0010E516E23
:1014D000000E526E502A03D0D89051365236502EFC
:1014E000FBD7511C536E521C546E4E5053164F5026
:1014F00054164C5053124D5054125750020DF35085
:101500004724D96EF4504820DA6E53C0DEFF54C031
:10151000DDFF572AA7D756064950565CD8A09ED75C
:10152000000E576E070E576401D012005750020D7F
:10153000F3504724D96EF4504820DA6EFE0EDE16C2
:10154000FF0EDD16572AEED75CD0000E4E6E070E4A
:101550004E6401D012004E50020DF3504724D96E54
:10156000F4504820DA6E4E50020DF3504924E16EDB
:10157000F4504A20E26EDECFE6FFDDCFE5FF4E2AD3
:10158000E6D7000E4E6E070E4E6401D012004E508C
:10159000020DF3504724D96EF4504820DA6EDECFA6
:1015A0004CF0DDCF4DF04E50020DF3504924D96E72
:1015B000F4504A20DA6E4C50DE124D50DD124E2AA5
:1015C000E2D7000E4E6E070E4E6401D012004E5050
:1015D000020DF3504724D96EF4504820DA6EDECF66
:1015E0004CF0DDCF4DF04E50020DF3504924D96E32
:1015F000F4504A20DA6E4C50DE1A4D50DD1A4E2A55
:10160000E2D74B504C6E4D6A4D50000AD8A41200E0
:101610004C50000AD8B499D7010AD8B4B2D7030AFB
:10162000D8A41200CED7010E5C6EC0EC10F05AC0E8
:1016300047F05BC048F0C2EC0FF00009D8B415D0F9
:10164000000E5C6E5AC047F05BC048F0900E496EC9
:10165000000E4A6E010E4B6EA4EC0AF05AC053F015
:101660005BC054F047EC0CF040D05AC047F05BC070
:1016700048F0000E496E010E4A6E50EC06F05AC05A
:1016800047F05BC048F0900E496E000E4A6E7CEC4D
:101690000EF00009D8B42BD0000E5C6E5AC047F093
:1016A0005BC048F0010E496E010E4A6E50EC06F028
:1016B0005AC047F05BC048F0900E496E000E4A6E6B
:1016C000010E4B6EA4EC0AF05AC053F05BC054F00C
:1016D00047EC0CF05AC047F05BC048F0900E496EE2
:1016E000000E4A6E7CEC0EF0126E010E116E000EB2
:1016F000046E000E036ED2EC10F05C501200180E57
:10170000476E000E486E000E4A6E080E496EDCEC05
:101710000FF0900E476E000E486E000E4A6E080ED7
:10172000496EDCEC0FF0000E0F6E000E0E6E000E18
:10173000156E000E106E000E126E000E116E000E71
:10174000046E000E036E010E176E2E682F68000ED9
:10175000346E2C682D68000E336E2A682B68000EDC
:10176000326E28682968000E316E000E0C6E030E72
:101770000B6E030E086E000E516E030E516401D005
:101780001CD05150020D010EF326000EF422000E63
:10179000F324D96E010EF420DA6E030EDF6E515081
:1017A000020D000EF324D96E010EF420DA6E5150B2
:1017B0000008040FDF6E512AE0D7030E0101016F0C
:1017C000030E006F010E0D6E11EC0EF01200C0EC56
:1017D00010F07FEC0BF0D2EC10F0180E476E000EFC
:1017E000486E000E4A6E080E496EDCEC0FF0900E4B
:1017F000476E000E486E000E4A6E080E496EDCEC15
:101800000FF0800E476E000E486E000E4A6E080EF6
:10181000496EDCEC0FF00704D8A426D0180E536EE6
:10182000000E546E47EC0CF01050D8B408D0000EE7
:10183000106E180E5A6E000E5B6E13EC0BF011500A
:10184000D8B406D0900E586E000E596E62EC0DF0B2
:1018500079EC03F01250D8B4E7D70A0EA7EC0FF0DA
:101860001550C7EC07F012000C04D8A404D0000EE9
:101870000C6E9AEC04F079EC03F01250D8B4F4D763
:10188000140EA7EC0FF00B50C7EC07F0120027EC7A
:101890000FF0556E000E566E000E576E070E562650
:1018A000572A5550565CD8A0F9D7000E4A6E070E3D
:1018B000496E57C047F0486AA2EC0DF047C04DF0A2
:1018C00048C04EF0000E506E130E4F6E5FEC10F0DD
:1018D000000E4D24586E020E4E20596E53C047F034
:1018E00054C048F058C049F059C04AF0000E4C6E40
:1018F000100E4B6ED3EC0EF020EE10F05850D9269F
:101900005950DA22DF500F6E20EE11F05850D926D0
:101910005950DA22DF500E6E000E136E20EE12F0D8
:101920005850D9265950DA22DF50166E000E046E38
:10193000000E036E12000000000000000100030012
:101940000100000000000400000000000001000190
:101950000001000100000000000400010000000080
:10196000000003000100010000000000040000006E
:10197000000000000001000100030000000000045E
:101980000000000000000000030003000000000051
:10199000000003010200000000000002000300013B
:1019A0000000000000040101000000000000010030
:0B19B000030002000000000004010121
:1019BC00360EF66E190EF76E000EF86E02EE00F093
:1019CC0010EE85F00900F5CFEEFFE550E150FAE19D
:1019DC00600EF66E210EF76E000EF86E00EEB7F08C
:1019EC0010EE10F00900F5CFEEFFE550E150FAE1F2
:1019FC00B60EF66E210EF76E000EF86E0900F5CFDE
:101A0C0062F001EE00F0C80EEE6AE806FDE100EEB1
:101A1C0080F0200EEE6AE806FDE100EE01F0340ED7
:101A2C00EE6AE806FDE163906392000EF86E000129
:101A3C000DEF10F0000E4C6E4AAE06D0496C4A1EEB
:101A4C00D8B04A2A010E4C6E48AE06D0476C481EE0
:101A5C00D8B0482A010E4C1A000E4E6E000E4D6E78
:101A6C0049504A10D8B41CD0010E4B6E04D0D890FB
:101A7C0049364A364B2A4AAEFAD7D8904D364E36AE
:101A8C004950475C4A504858D8A005D04950475E49
:101A9C004A50485A4D80D8904A3249324B2EEDD795
:101AAC004C50D8B404D04D6C4E1ED8B04E2A4DC0FC
:101ABC0047F04EC048F01200000E616E0F0E6164CC
:101ACC0001D01200000E5F6E000E606E070E606497
:101ADC0001D023D06050020DF3505824D96EF4502D
:101AEC005920DA6EDECF5AF0DDCF5BF061C05CF0CE
:101AFC00010E5D6E000E5E6E5C2A03D0D8905D36D2
:101B0C005E365C2EFBD75A505D165B505E165D50F0
:101B1C005E10D8A45F2A602AD9D7080E5F18D8A403
:101B2C0009D058C047F059C048F061C049F02BECBF
:101B3C000AF0152A612AC2D7000E4C6E48AE06D0A8
:101B4C00476C481ED8B0482A010E4C6E4AAE04D0E1
:101B5C00496C4A1ED8B04A2A49504A10D8B418D0F9
:101B6C00010E4B6E04D0D89049364A364B2A4AAEF9
:101B7C00FAD74950475C4A504858D8A004D049502D
:101B8C00475E4A50485AD8904A3249324B2EF1D7C8
:101B9C004C50D8B404D0476C481ED8B0482A47C023
:101BAC0047F048C048F012003B6E3B50D8A423D0FD
:101BBC0035C0D9FF36C0DAFF010EDBAE09D035C017
:101BCC00D9FF36C0DAFF140EDE6E000EDD6E120089
:101BDC0035C0D9FF36C0DAFFDE06000EDD5ADE282E
:101BEC0019E1DE28D8A4120037C0D9FF38C0DAFFBB
:101BFC00010EDF6E120035C0D9FF36C0DAFFFF0EC2
:101C0C00DE6EFF0EDD6E37C0D9FF38C0DAFF000E76
:101C1C00DF6E12001200010E4F6E000E4F6E080E9A
:101C2C009BEC10F00A6E100E9BEC10F0096E000E7F
:101C3C00506E1FD05050020D000EF324D96E010EC1
:101C4C00F420DA6E0A50DE18D8A412D05050020DCF
:101C5C00010EF326000EF422000EF324D96E010EB1
:101C6C00F420DA6E0950DE18D8A402D0010E4F6EA3
:101C7C00502A0B50505CD8A0DDD74F04D8A41200CA
:101C8C00CCD7000E4E6E000E4F6E070E4F6401D077
:101C9C002BD0000E506E0F0E506401D023D04F503D
:101CAC00020DF3504724D96EF4504820DA6EDECF83
:101CBC0049F0DDCF4AF050C04BF0010E4C6E000ED7
:101CCC004D6E4B2A03D0D8904C364D364B2EFBD74D
:101CDC0049504C164A504D164C504D10D8A44E2A13
:101CEC00502AD9D74F2AD1D74E501200000E4F6E22
:101CFC00070E4F6401D024D04F50020DF3504924ED
:101D0C00D96EF4504A20DA6EDECF4BF0DDCF4CF0BA
:101D1C004F50020DF3504724D96EF4504820DA6E20
:101D2C00DECF4DF0DDCF4EF04B504D164C504E16D5
:101D3C004D504E10D8B402D0010E12004F2AD8D7F5
:101D4C00000E1200C0EC10F00704D8A40FD0180E2F
:101D5C00476E000E486EE10E496E060E4A6E000E7E
:101D6C004C6E100E4B6ED3EC0EF00ED0180E476E60
:101D7C00000E486ED10E496E060E4A6E000E4C6E69
:101D8C00100E4B6ED3EC0EF0D2EC10F00D0E486E24
:101D9C00AC0E476EA7EC10F0120047C04DF048C0D7
:101DAC004EF049C04FF04AC050F019D04FC0F6FF6A
:101DBC0050C0F7FFF86A4DC0D9FF4EC0DAFF050ED0
:101DCC00F76403D00800F55005D0F6CFE9FFF7CF44
:101DDC00EAFFEF50DF6E4F4A502A4D4A4E2A4B060F
:101DEC00D8A04C064B28E2E14C28D8B41200DED720
:101DFC00000E526E000E516EFF0E4E24536EFF0EEF
:101E0C004F20546E13D051504C24476E52504D20DD
:101E1C00486E53504C24496E54504D204A6EF6EC8B
:101E2C000FF0514A522A5306D8A054065350515C15
:101E3C005250800A506E5450800A5058D8B012003C
:101E4C00E2D762C047F0473A0F0E471662C048F01F
:101E5C00D8904832D8904832D89048326240E84204
:101E6C003F0B481847186218496E010E4916495025
:101E7C004A6E4B6A476A4AA001D0478ED8906230AE
:101E8C004710626E62501200D39ED388D38AD38CD3
:101E9C00D350FC0B0209D36EC180C182C184C186B0
:101EAC00000E926E000E806E9368000E816EF19E95
:101EBC00000E946E000E826E000E956E000E836EF8
:101ECC0072EC10F0D09EF28E120037503810D8B44D
:101EDC0018D0010E396E04D0D89037363836392ADE
:101EEC0038AEFAD73750355C38503658D8A004D0B5
:101EFC003750355E3850365AD89038323732392E02
:101F0C00F1D735C035F036C036F01200496E0750A7
:101F1C00D8A403D049500A0F496E4950B8EC10F0C0
:101F2C004A6E4A50D8A405D0000E476E49504CEC6E
:101F3C0010F04A28D8A402D0000E4A6E4AC014F001
:101F4C001200496E0704D8A40AD01550145CD8B0FE
:101F5C00120015C047F049504CEC10F0120007501D
:101F6C00D8A412000B50145CD8B012000BC047F070
:101F7C0049504CEC10F01200000E4B6E070E4B64E7
:101F8C0001D012D04B50020DF3504724D96EF450AF
:101F9C004820DA6EDECF49F0DDCF4AF04AAE02D0EF
:101FAC00010E12004B2AEAD7000E1200000E4D6EE5
:101FBC000DD04D50020DF3504724D96EF4504820EB
:101FCC00DA6E000EDE6E000EDD6E4D2A4D504B6E3D
:101FDC004C6A49504B5C4A504C58D8B01200E9D767
:101FEC0047C0D9FF48C0DAFFDF504B6E49C0D9FF5C
:101FFC004AC0DAFF47C0E1FF48C0E2FFDFCFE7FF8E
:10200C0049C0D9FF4AC0DAFF4BC0DFFF1200770E80
:10201C00CEEC10F04AEC0FF07FEC0BF0010E066EDC
:10202C006EEC08F0A8EC0EF00A0E8CEC0FF01450CD
:10203C00C7EC07F0E7EC0BF0FDD7486E080E496EC5
:10204C00000E4A6ED89048344A344A6ED8904836BE
:10205C0047504A5CD8A002D047504A5E492EF2D76E
:10206C004A501200536E51C047F052C048F05350C2
:10207C00100D310EF324496E060EF4204A6E000E3C
:10208C004C6E100E4B6ED3EC0EF01200486EA68404
:10209C0048C0A9FF47C0A8FFA69EA69CF29E550E5D
:1020AC00A76EAA0EA76EA682F28EA6B2FED7A69433
:1020BC0012004D504F02F3CF51F0F4CF52F04D506F
:1020CC005002F35052264E504F02F350522651C03C
:1020DC004DF052C04EF01200D550F80B0309D56EDE
:1020EC00D596D59AD58EFF0ED76E820ED66EF294FB
:1020FC00F28AD58E120020EE0EF04750D9264850A9
:10210C00DA22DE50DE10D8B402D0010E1200000E1E
:10211C00120047C0D9FF48C0DAFFDE50DE10D8B439
:10212C0002D0010E1200000E12004C6E27EC0FF0C4
:10213C004D6E4CC047F04D5023EC10F04D6E4D5091
:10214C00120047C001F048C002F001500210D8B490
:10215C001200FBD7FFFFFFFFFFFFFFFFFFFFFFFF9B
:10216C00FFFFFFFF476E47C0A9FFA69EA69CA68057
:10217C00A85012000650D8B41200C8EC10F0000E93
:10218C00066E1200000E056E0550D8A41200FCD786
:10219C00476E47C062F01200010E066E1200010E6F
:0B21AC00176E1200000E176E1200FFED
:020000040020DA
:08000000FFFFFFFFFFFFFFFF00
:020000040030CA
:0E000000FF081F1EFF8181FF0FC00FE00F40A1
:00000001FF
