:020000040000FA
:0400000007EF00F016
:100008006F82CCED10F06EEF0FF09DD020EE01F076
:100018004150D9264250DA2210EE01F04150E12633
:100028004250E222E750456E4504DF6E3FC0D9FFDB
:1000380040C0DAFF000EDF6E20EE01F04150D926F5
:100048004250DA22C70EDF6496D020EE01F041500C
:10005800D9264250DA220F0E25D041C0D9FF42C01E
:10006800DAFFDF50456E452841C0D9FF42C0DAFFAC
:10007800DF6E3FC0D9FF40C0DAFF010EDF6E41C01E
:10008800D9FF42C0DAFF070EDF6475D041C0D9FF3F
:1000980042C0DAFFC80EDF606ED041C0D9FF42C04F
:1000A800DAFF30D0DF6E67D020EE01F04150D9265C
:1000B8004250DA2210EE01F04150E1264250E2228D
:1000C800E750456E4528DF6E3FC0D9FF40C0DAFFD4
:1000D800020EDF6E20EE01F04150D9264250DA229E
:1000E8000F0EDF6448D020EE01F04150D92642506F
:1000F800DA22C80EDF603FD020EE01F04150D92649
:100108004250DA22000ECED741C0D9FF42C0DAFFF2
:10011800DF50456E450441C0D9FF42C0DAFFDF6EAB
:100128003FC0D9FF40C0DAFF030EDF6E41C0D9FFE0
:1001380042C0DAFFC70EDF641ED041C0D9FF42C0FB
:10014800DAFF070EAFD73DC0D9FF3EC0DAFFDF5058
:10015800456E466A4650000AD8A40DD04550000A9C
:10016800D8B454D7010AD8B478D7030AD8B49CD7DE
:10017800010AD8B4C9D7000E4E6E6DD039C0D9FF68
:100188003AC0DAFFDF50456E466A4E50455E000EB3
:10019800465AD8904536463641C047F042C048F0E6
:1001A8004550472646504822010E4724D96E000E76
:1001B8004820DA6E39C0E1FF3AC0E2FFE750496EE5
:1001C8004A6A4E50495E000E4A5AD89049364A3615
:1001D80041C04BF042C04CF049504B264A504C228B
:1001E800030E4B24E16E000E4C20E26EDFCFE7FFDA
:1001F80039C0D9FF3AC0DAFFDF50456E466A4E5023
:10020800455E000E465AD89045364636455041243C
:10021800D96E46504220DA6E39C0E1FF3AC0E2FF9B
:10022800E750476E486A4E50475E000E485AD890CD
:100238004736483641C049F042C04AF0475049263F
:1002480048504A22020E4924E16E000E4A20E26E0E
:10025800DFCFE7FF4E2A39C0D9FF3AC0DAFF4E5048
:10026800DE5CD8B08BD720EE01F04350D92644503D
:10027800DA2210EE01F04150E1264250E222DE502F
:10028800E618D8A426D043C0D9FF44C0DAFF41C03D
:10029800E1FF42C0E2FFDE50E618D8A41AD039C008
:1002A800D9FF3AC0DAFFDF50456E452839C0D9FF7B
:1002B8003AC0DAFFDF6E39C017F03AC018F041C013
:1002C80019F042C01AF043C01BF044C01CF0D1EC36
:1002D8000BF0040E4D6E35D04D50020D41C045F067
:1002E80042C046F0F3504526F4504622010E4524FC
:1002F800D96E000E4620DA6E10EE01F04150E1266C
:100308004250E222DE50E618D8A41AD04D50020D11
:10031800F3CF45F0F4CF46F045504124D96E46500E
:100328004220DA6E41C0E1FF42C0E2FFDE50E6182B
:10033800D8A406D03BC0D9FF3CC0DAFF010EDF6E5F
:100348004D2A39C0D9FF3AC0DAFF4D50DE5CD8B02B
:10035800C3D739C019F03AC01AF041C01BF042C0E7
:100368001CF043C01DF044C01EF0D6EC06F012008D
:10037800F5D0000E176E26D0000E186E1850020D1C
:10038800F3CF11F0F4CF12F011500D24D96E1250A2
:100398000E20DA6ED890DE36DD36182A070E18647D
:1003A800EDD720EE11F00D50D9260E50DA2210EEBE
:1003B80011F00D50E1260E50E222E750116E11287F
:1003C800DF6E172A1050175CD8B01200D5D7000E70
:1003D800176E27D0000E186E1850020DF3CF11F0CB
:1003E800F4CF12F011500D24D96E12500E20DA6E8F
:1003F800D890DC32DD50DF32182A070E1864ECD7AB
:1004080020EE11F00D50D9260E50DA2210EE11F020
:100418000D50E1260E50E222E750116E1104DF6EF6
:10042800172A1050175CD8B01200D4D7000E176ED8
:1004380043D0070E186E1850116E126AD8901136F4
:1004480012360DC013F00EC014F0115013261250BE
:100458001422FE0E1324D96EFF0E1420DA6E1850E3
:10046800020DF3CF15F0F4CF16F015500D24E16E00
:1004780016500E20E26EDECFE6FFDDCFE5FF180650
:100488001850D8A4D8D70DC0D9FF0EC0DAFF000E77
:10049800DE6E000EDD6E20EE10F00D50D9260E50E7
:1004A800DA2210EE10F00D50E1260E50E222E7504D
:1004B800116E1128DF6E172A1050175CD8B0120081
:1004C800B8D7000E176E45D0000E186E1850116E72
:1004D800126AD890113612360DC013F00EC014F0FF
:1004E8001150132612501422020E1324D96E000E36
:1004F8001420DA6E1850020DF3CF15F0F4CF16F071
:1005080015500D24E16E16500E20E26EDECFE6FF88
:10051800DDCFE5FF182A060E1864D8D720EE0EF0B6
:100528000D50D9260E50DA22000EDE6E000EDD6E5A
:1005380020EE10F00D50D9260E50DA2210EE10F0F1
:100548000D50E1260E50E222E750116E1104DF6EC5
:10055800172A1050175CD8B01200B6D70F50116E7A
:10056800126A1250000AD8A412001150000AD8B416
:1005780000D7010AD8B42BD7030AD8B4A2D7010AE6
:10058800D8A4120053D717C028F018C029F020EEBD
:1005980012F02850D9262950DA22020EDE18D8A4E3
:1005A8000FD019C00DF01AC00EF028C00FF029C0E6
:1005B80010F0000E126E100E116ED4EC0FF0120037
:1005C80019C00DF01AC00EF0000E106E080E0F6E56
:1005D80050EC11F020EE12F02850D9262950DA22DA
:1005E800DE04D8A40FD020EE13F01750D9261850E7
:1005F800DA22DF50D8B406D01BC0D9FF1CC0DAFFFE
:10060800000EDF6E000E266E000E276E2650020DBD
:10061800F3CF1DF0F4CF1EF01D502824D96E1E50C4
:100628002920DA6EDECF1FF0DDCF20F027C021F0C1
:10063800010E226E000E236E212A03D0D890223696
:100648002336212EFBD71F50221620502316225066
:100658002310D8B486D01BC0D9FF1CC0DAFFDE0433
:10066800D8A428D020EE11F02850D9262950DA2213
:10067800DF501D6E20EE10F02850D9262950DA22BE
:10068800DF501E6E27501E5C1D24246E20EE10F0D5
:100698002850D9262950DA22DF501D6E20EE11F09D
:1006A8002850D9262950DA22DF501E6E1D501E5CB4
:1006B800262427D020EE11F02850D9262950DA22F6
:1006C800DF501D6E20EE10F02850D9262950DA226E
:1006D800DF501E6E1D501E5C2724246E20EE11F084
:1006E8002850D9262950DA22DF501D6E20EE10F04E
:1006F8002850D9262950DA22DF501E6E26501E5C5B
:100708001D24256E24BE2DD02450800A780FD8A031
:1007180025BE27D02550800A700FD8B022D025C01A
:100728001DF0010E1E6E000E1F6E1D2A03D0D890FC
:100738001E361F361D2EFBD724500D6E0E6A0DBEB9
:100748000E06000E106E020E0F6EBAEC11F00D5070
:100758001924D96E0E501A20DA6E1E50DE121F5060
:10076800DD12272A0F0E276451D7262A070E266482
:100778004BD7120020EE14F01750D9261850DA2261
:10078800070EDE18D8A461D020EE14F01750D92631
:100798001850DA22000EDF6E070E266E16D026508D
:1007A8001724196E000E18201A6E150E1924D96E0A
:1007B800000E1A20DA6EFF0EDF6E1D0E2624D96E8B
:1007C800DA6A000EDA22000EDF6E26062628D8A482
:1007D800E6D7070E256E35D0000E246E8CEC0EF091
:1007E8000D50296E29C00DF00E6A000E106E070E0E
:1007F8000F6EC9EC0EF00D50296E1D0E2924D96E0E
:10080800DA6A000EDA22DF50D8A418D0255017244F
:10081800196E000E18201A6E150E1924D96E000EC6
:100828001A20DA6E29C0DFFF1D0E2924D96EDA6A74
:10083800000EDA22010EDF6E010E246E2450D8B4A9
:10084800CDD725062528D8A4C7D720EE14F01750F1
:10085800D9261850DA22DF50196E195017241A6E4B
:10086800000E18201B6E150E1A24D96E000E1B20C0
:10087800DA6EDF501C6E1C50130D000EF324276E29
:10088800020EF420286E17C02AF018C02BF02AC0D8
:100898000DF02BC00EF027C00FF028C010F0000E8E
:1008A800126E100E116ED4EC0FF020EE10F02750DF
:1008B800D9262850DA2210EE10F02A50E1262B50C3
:1008C800E222DFCFE7FF20EE11F02750D92628508B
:1008D800DA2210EE11F02A50E1262B50E222DFCF67
:1008E800E7FF20EE13F01750D9261850DA22000E31
:1008F800DF6E20EE12F02750D9262850DA2210EEAB
:1009080012F02A50E1262B50E222DFCFE7FF000E3B
:100918000E6E000E0D6E08EC13F020EE14F017505A
:10092800D9261850DA22DF2A1200B5D0000E176E29
:1009380016D0000E186E1850020DF3CF11F0F4CF38
:1009480012F011500D24D96E12500E20DA6ED89084
:10095800DE36DD36182A070E1864EDD7172A105030
:10096800175CD8B01200E5D7000E176E17D0000E2E
:10097800186E1850020DF3CF11F0F4CF12F0115089
:100988000D24D96E12500E20DA6ED890DC32DD506C
:10099800DF32182A070E1864ECD7172A1050175C94
:1009A800D8B01200E4D7000E176E33D0070E186EB9
:1009B8001850116E126AD890113612360DC013F005
:1009C8000EC014F01150132612501422FE0E1324D8
:1009D800D96EFF0E1420DA6E1850020DF3CF15F001
:1009E800F4CF16F015500D24E16E16500E20E26E6D
:1009F800DECFE6FFDDCFE5FF18061850D8A4D8D71C
:100A08000DC0D9FF0EC0DAFF000EDE6E000EDD6EDF
:100A1800172A1050175CD8B01200C8D7000E176EEE
:100A280035D0000E186E1850116E126AD890113613
:100A380012360DC013F00EC014F0115013261250C8
:100A48001422020E1324D96E000E1420DA6E1850E8
:100A5800020DF3CF15F0F4CF16F015500D24E16E0A
:100A680016500E20E26EDECFE6FFDDCFE5FF182A36
:100A7800060E1864D8D720EE0EF00D50D9260E5069
:100A8800DA22000EDE6E000EDD6E172A1050175C9B
:100A9800D8B01200C6D70F50116E126A1250000A51
:100AA800D8A412001150000AD8B440D7010AD8B40B
:100AB8005BD7030AD8B4B2D7010AD8A4120073D7F7
:100AC800100E0D6E010E0E6E000E106E080E0F6EDB
:100AD80050EC11F0A9EC12F0000EA6EC11F0010197
:100AE800226F22517DEC07F0270E0D6E010E0E6E5F
:100AF800000E106E080E0F6E50EC11F0070E01017B
:100B08003B6F000E246F000E266F270E176E010E26
:100B1800186EBEEC03F0270E176E010E186E06EC69
:100B280012F0000E0101256F000E0001B76F010ED3
:100B38000101206F270E436E010E446E100E456EA4
:100B4800010E466E260E476E010E486E250E496E42
:100B5800010E4A6E210E4B6E010E4C6E16EC0BF018
:100B68000009D8A406D001012351D8A402D0000E50
:100B7800206F01012051D8B402D0010E01D0000E1F
:100B8800236F0001B751D8B417D0000EB76F270EE6
:100B98002C6E010E2D6E100E2E6E010E2F6E260E6F
:100BA800306E010E316E250E326E010E336E3BEC47
:100BB8000AF0010E0101236F01012651D8B40BD0B0
:100BC800100E256E010E266E42EC0DF00101242553
:100BD800246F010E236F2351D8B421D0100E0D6E4F
:100BE800010E0E6E000E0F6E010E106E000E116ECD
:100BF800BBEC09F0270E0D6E010E0E6E000E0F6E87
:100C0800010E106E010E116EBBEC09F0000E176E8E
:100C1800010E186E06EC12F0000E0101236F25512B
:100C2800D8B485D722C10FF024C110F0000ECFEC44
:100C380012F0010124517DEC07F01200000E426E03
:100C48004250020D1F0EF324F66E7F0EF420F76E4D
:100C58000900F5CF19F00900F5CF1AF04250020D3E
:100C68002F0EF324F66E7F0EF420F76E0900F5CFF1
:100C78001BF00900F5CF1CF019501B121A501C125A
:100C88004250020D1D0EF324D96E000EF420DA6EC8
:100C98001BC0DEFF1CC0DDFF422A070E4264D0D70E
:100CA8001D0E176E000E186E19EC12F0000E3FECB8
:100CB80012F00009D8A4FAD7000E2CEC12F00009A3
:100CC800D8A4F4D7000E3FEC12F00009D8A406D03F
:100CD800000E2CEC12F00009D8B4F4D7000E3FEC4B
:100CE80012F0E806D8A41DD0000E3F6E000E3E6E2E
:100CF800D8903E34D96E3F34DA6E2D0ED926000EC8
:100D0800DA22000EDE6EFF0EDD6E3E4A3F2A3FBE3F
:100D1800EFD73F5004E1080E3E5CD8A0E9D7000E9B
:100D280022D0000E2CEC12F0E806D8A41DD0000E3C
:100D3800416E000E406ED8904034D96E4134DA6E60
:100D48002D0ED926000EDA22FF0EDE6E000EDD6EA5
:100D5800404A412A41BEEFD7415004E1080E405CA9
:100D6800D8A0E9D7010E3D6EF3EC12F02D0E0D6EF2
:100D7800000E0E6EB80E0F6E000E106E020E116E83
:100D8800BBEC09F02EEC13F0000E3FEC12F000095A
:100D9800D8A4FAD7000E2CEC12F00009D8A4F4D786
:100DA8003D501200260E0D6E000E0E6E000E106ED7
:100DB800080E0F6E50EC11F0000E376E4BD0375006
:100DC800020DF3CF1FF0F4CF20F01F501B24D96E73
:100DD80020501C20DA6EDF50366E3650020D260E7B
:100DE800F324D96E000EF420DA6EDECF1FF0DDCFCB
:100DF80020F03750020D1BC021F01CC022F0F35028
:100E08002126F4502222010E2124D96E000E222020
:100E1800DA6EDF50236E2350020DFF0EF324F66EB8
:100E28007E0EF420F76E0900F5CF24F00900F5CF07
:100E380025F01F502412205025123650020D260E80
:100E4800F324D96E000EF420DA6E24C0DEFF25C02C
:100E5800DDFF372A19C0D9FF1AC0DAFF3750DE5C28
:100E6800D8B0ADD7000E386E1DC0D9FF1EC0DAFF4E
:100E78003850DE18D8A432D03850020D260EF3248C
:100E8800D96E000EF420DA6EDECF1FF0DDCF20F031
:100E980020EE01F01D50D9261E50DA22DF50216EB7
:100EA8002150020DFF0EF324F66E7E0EF420F76E2D
:100EB8000900F5CF22F00900F5CF23F01F502212C8
:100EC800205023123850020D260EF324D96E000E3E
:100ED800F420DA6E22C0DEFF23C0DDFF382A070EB9
:100EE8003864C2D7260E176E000E186E06EC12F084
:100EF80012000001B06F900E0D6E000E0E6E000E07
:100F0800106E080E0F6E50EC11F0B0C01BF01C6A8A
:100F1800B20E1D6E000E1E6E000E206E0A0E1F6EA3
:100F280038EC09F0000E0001B66F36D0B20EB625C7
:100F3800D96EDA6A000EDA22DF50D00FB16FA00E38
:100F4800176E000E186EB15192EC11F0A00E0D6ED6
:100F5800000E0E6E000E0F6E0001B6510208050D50
:100F6800F3CF10F099EC04F0A00E0D6E000E0E6E8B
:100F7800030E0F6EB6C010F099EC04F0A00E0D6EC3
:100F8800000E0E6E900E0F6E000E106E010E116E9A
:100F9800BBEC09F00001B62B030EB66109D0B20E06
:100FA800B625D96EDA6A000EDA22DF50D8A4BED789
:100FB800F3EC12F0900E176E000E186E06EC12F09D
:100FC8002EEC13F0000E3FEC12F00009D8A4FAD76B
:100FD800000E3FEC12F00009D8B4FAD720EEC8F0A2
:100FE80010EE80F00F0EDBCFE3FFE806FCE2800E88
:100FF8000D6E000E0E6E900E0F6E000E106E020E2D
:10100800116EBBEC09F0F3EC12F0900E176E000EA7
:10101800186E06EC12F02EEC13F0000E3FEC12F0F6
:101028000009D8A4FAD728EC13F025EC13F0120025
:101038000DC0D9FF0EC0DAFF030EDE18D8A45DD0AC
:1010480020EE04F00F50D9261050DA22DF50116E2E
:10105800126A20EE02F00F50D9261050DA22DF5023
:10106800136E146A010E1326000E14221150131861
:1010780004E112501418D8B421D020EE04F00F5017
:10108800D9261050DA22DF50116E126AF90E136E4B
:10109800FF0E146E20EE02F00F50D9261050DA22FF
:1010A800DF50156E166A135015261450162211506B
:1010B800151823E112501618D8A41FD020EE01F0FD
:1010C8000F50D9261050DA220F0EDE18D8A406D0F9
:1010D8000DC0D9FF0EC0DAFF000E0ED020EE01F0D1
:1010E8000F50D9261050DA22DF50D8A406D00DC0F0
:1010F800D9FF0EC0DAFF020EDF6E0DC0D9FF0EC099
:10110800DAFFDF50D8A40FD020EE01F00F50D92617
:101118001050DA22DF50D8A406D00DC0D9FF0EC077
:10112800DAFF030EDF6E0DC0D9FF0EC0DAFF020E24
:10113800DE18D8A4120020EE01F00F50D926105066
:10114800DA220F0EDE18D8A412000DC0D9FF0EC087
:10115800DAFF030EDF6E12000F04226E69D0222818
:10116800236E080E246E5FD023C010F022C011F049
:101178002450020DF3CF12F0F4CF13F012500D24C7
:10118800D96E13500E20DA6EDECF14F0DDCF15F0D5
:10119800112A03D0D89015321432112EFBD7010E24
:1011A8001416000E1516102A03D0D89014361536CA
:1011B800102EFBD72450020DF3CF16F0F4CF17F002
:1011C80016500D24D96E17500E20DA6EDECF18F0A7
:1011D800DDCF19F023C01AF0010E1B6E000E1C6E35
:1011E8001A2A03D0D8901B361C361A2EFBD71B1C84
:1011F8001D6E1C1C1E6E18501D1619501E161450FC
:101208001D1215501E122450020DF3CF1FF0F4CFFB
:1012180020F01F500D24D96E20500E20DA6E1DC00C
:10122800DEFF1EC0DDFF24062428D8A49DD7220691
:101238000F50225CD8A093D7080E216E10D02150F1
:10124800020DF3CF10F0F4CF11F010500D24D96E29
:1012580011500E20DA6EFE0EDE16FF0EDD16210688
:101268002128D8B41200EBD7000E276E000E266E88
:10127800000E236E1B501C10D8A411D01DC0D9FF1E
:101288001EC0DAFF300EDF6E264A272A26501D249C
:10129800D96E27501E20DA6E000EDF6E12001CAECB
:1012A80042D00A0E1F182010D8A43DD0010E236E7C
:1012B8001B6C1C1ED8B01C2A36D01BC00DF01CC0DD
:1012C8000EF01FC00FF020C010F0C9EC0EF00DC0DA
:1012D80024F00EC025F025BE06D0255006E10A0EE2
:1012E800245CD8B002D0300E01D0570E2424216ED1
:1012F800000E2520226E26501D24D96E27501E2050
:10130800DA6E21C0DFFF264A272A1BC00DF01CC059
:101318000EF01FC00FF020C010F0C9EC0DF00DC08A
:101328001BF00EC01CF01B501C10D8A4C6D72350AD
:10133800D8B40AD026501D24D96E27501E20DA6E44
:101348002D0EDF6E264A272A26501D24D96E2750D7
:101358001E20DA6E000EDF6E1DC012F01EC013F0E4
:1013680026C014F027C015F0FFEC0FF01200080E8D
:10137800186E6BD01850020DF3CF12F0F4CF13F0A3
:1013880012500D24D96E13500E20DA6E1850020D2B
:10139800F3CF14F0F4CF15F014500F24E16E15506C
:1013A8001020E26EDECFE6FFDDCFE5FF1806182835
:1013B800D8B41200DFD71850020DF3CF12F0F4CFD3
:1013C80013F012500D24D96E13500E20DA6EDECFB2
:1013D80014F0DDCF15F01850020DF3CF16F0F4CF4E
:1013E80017F016500F24D96E17501020DA6E1450CB
:1013F800DE121550DD1218061828D8B41200DBD7F3
:101408001850020DF3CF12F0F4CF13F012500D2440
:10141800D96E13500E20DA6EDECF14F0DDCF15F042
:101428001850020DF3CF16F0F4CF17F016500F2412
:10143800D96E17501020DA6E1450DE1A1550DD1AC6
:1014480018061828D8B41200DBD71150126E136A88
:101458001350000AD8A412001250000AD8B4A6D714
:10146800010AD8B4C8D7030AD8A41200E9D72CC0F7
:1014780035F02DC036F0010E346E35C00DF036C093
:101488000EF0E9EC10F00009D8B41BD0000E346E51
:1014980035C00DF036C00EF02EC00FF02FC010F082
:1014A800010E116EBBEC09F02CC017F02DC018F01E
:1014B800BEEC03F030C0D9FF31C0DAFF010EDF6E99
:1014C80045D035C00DF036C00EF0000E0F6E010E7F
:1014D800106EBCEC01F035C00DF036C00EF02EC019
:1014E8000FF02FC010F0A1EC0FF00009D8B42ED0E7
:1014F800000E346E35C00DF036C00EF0010E0F6EC2
:10150800010E106EBCEC01F035C00DF036C00EF0C7
:101518002EC00FF02FC010F0010E116EBBEC09F0B9
:101528002CC017F02DC018F0BEEC03F035C00DF03C
:1015380036C00EF02EC00FF02FC010F0A1EC0FF047
:1015480032C0D9FF33C0DAFFDF6EB4D7000E0E6E9B
:10155800000E0D6E08EC13F034501200030E566E98
:1015680005EC11F04F6E010EA6EC11F0506E5050C4
:101578007DEC07F0010E556E030E546E560E236E69
:10158800000E246E000E256E010E266E520E276E7A
:10159800000E286EFCEC0CF0000E516E550E126E0B
:1015A800000E136E540E146E000E156E0BEC0EF03A
:1015B8006904D8A429D04F50D8B40AD0550E0D6E5E
:1015C800000E0E6E000E0F6E010E106E1CEC08F071
:1015D800000E696E560E396E000E3A6E510E3B6E55
:1015E800000E3C6E550E3D6E000E3E6E540E3F6E64
:1015F800000E406E000E416E010E426E520E436E9A
:10160800000E446E09EC00F05150D8B4C7D750C052
:101618000FF056C010F0010ECFEC12F056507DECD2
:1016280007F01200000E4D6E010EF3EC11F00009E8
:10163800D8B411D043C01AF044C01BF045C01CF008
:1016480046C01DF025EC0CF047C0D9FF48C0DAFFB2
:10165800DF6E010E4D6E010EE0EC11F00009D8B4FA
:1016680011D043C01AF044C01BF045C01CF046C05E
:101678001DF06EEC0CF047C0D9FF48C0DAFFDF6EF2
:10168800010E4D6E010E2CEC12F00009D8B410D0EA
:1016980043C02AF044C02BF045C02CF046C02DF0C2
:1016A8004BC02EF04CC02FF078EC0BF0010E4D6EB5
:1016B800010E3FEC12F00009D8B414D043C037F043
:1016C80044C038F045C039F046C03AF047C03BF056
:1016D80048C03CF049C03DF04AC03EF067EC11F00C
:1016E800010E4D6E4D501200310E0D6E000E0E6E35
:1016F800000E106E080E0F6E50EC11F02AC017F095
:101708002BC018F0310E196E000E1A6E2EC01BF089
:101718002FC01CF0C7EC02F02AC041F02BC042F0E9
:1017280041C00DF042C00EF001EC0FF0306E310EEA
:101738000D6E000E0E6E01EC0FF03018D8A41200DA
:10174800310E0D6E000E0E6E2CC00FF02DC010F075
:10175800A1EC0FF00009D8A41200310E0D6E000E96
:101768000E6E41C00FF042C010F0000E116EBBECBF
:1017780009F020EE13F02A50D9262B50DA2210EE69
:1017880013F02A50E1262B50E222E604D8B402D006
:10179800010E01D0000EDF6E1200000E216E080E41
:1017A800B6EC12F01BC0D9FF1CC0DAFFDF6E20EECA
:1017B80001F01B50D9261C50DA22100EB6EC12F09C
:1017C800DF6E000E226E31D02250020DF3CF1DF0D5
:1017D800F4CF1EF01D501924D96E1E501A20DA6E4F
:1017E8001BC0E1FF1CC0E2FFDE50E618D8A41CD0E5
:1017F8002250020D19C01DF01AC01EF0F3501D260C
:10180800F4501E22010E1D24D96E000E1E20DA6E21
:1018180010EE01F01B50E1261C50E222DE50E618C3
:10182800D8A402D0010E216E222A17C0D9FF18C0F1
:10183800DAFFDE50225CD8A0C7D72104D8A4120052
:10184800ACD71AC00DF01BC00EF0C3EC12F00009A3
:10185800D8A43ED01E0E0D6E000E0E6E1AC00FF0EC
:101868001BC010F0000E126E100E116ED4EC0FF0AB
:101878001E0E0D6E000E0E6E020E0F6E010E106E15
:1018880099EC04F01E0E0D6E000E0E6E1CC00FF0CB
:101898001DC010F0A1EC0FF00009D8A419D0F3EC8A
:1018A80012F01E0E0D6E000E0E6E1AC00FF01BC049
:1018B80010F0000E116EBBEC09F02EEC13F020EEC8
:1018C80010F01A50D9261B50DA22DF06010E12003A
:1018D800000E12001AC00DF01BC00EF07FEC12F0C3
:1018E8000009D8A43CD01AC00DF01BC00EF01E0E83
:1018F8000F6E000E106E000E116EBBEC09F01E0E7E
:101908000D6E000E0E6E030E0F6E010E106E99EC2A
:1019180004F01E0E0D6E000E0E6E1CC00FF01DC0E2
:1019280010F0A1EC0FF00009D8A419D0F3EC12F0D4
:101938001E0E0D6E000E0E6E1AC00FF01BC010F0BA
:10194800000E116EBBEC09F02EEC13F020EE10F037
:101958001A50D9261B50DA22DF2A010E1200000E77
:101968001200086E6606D8A06706000E026E010E09
:10197800016EFBEC12F01CEC13F0200E015C030E60
:101988000258D8A006D0000E026E000E016E17ECA9
:1019980013F00804D8A411D01CEC13F001C003F014
:1019A80002C004F0030E066E200E056E70EC10F0F7
:1019B80003500410D8B421EC13F00804D8B411D0A3
:1019C8001CEC13F001C003F002C004F0000E066E18
:1019D800C80E056E70EC10F003500410D8B431EC4A
:1019E80013F04CEC0EF028EC10F0010E686E1200AB
:1019F800000E696E000E2B6E2B50020D25C029F0CB
:101A080026C02AF0F3502926F4502A22010E292450
:101A1800D96E000E2A20DA6E030EDF6E2B50020DEF
:101A2800F3CF29F0F4CF2AF029502524D96E2A5073
:101A38002620DA6E2B500408DF6E2B2A030E2B6447
:101A4800DBD720EE01F02550D9262650DA22030EE6
:101A5800DF6E25C0D9FF26C0DAFF030EDF6E23C074
:101A680017F024C018F025C019F026C01AF027C0B6
:101A78001BF028C01CF0D1EC0BF01200000E2F6EEA
:101A8800000E316E000E2E6E000E306E3050020DBC
:101A9800F3CF27F0F4CF28F027502524D96E28500B
:101AA8002620DA6EDECF29F0DDCF2AF031C02BF008
:101AB800010E2C6E000E2D6E2B2A03D0D8902C36DA
:101AC8002D362B2EFBD729502C162A502D162C508C
:101AD8002D10D8A42E2A302A070E3064D7D7080E26
:101AE8002E18D8A409D025C00DF026C00EF031C09C
:101AF8000FF0B0EC08F02F2A312A0F0E3164C2D74C
:101B08002F50120000000000000001000300010037
:101B180000000000040000000000000100010001B6
:101B280000010000000000040001000000000000A7
:101B38000300010001000000000004000000000094
:101B48000000000100010003000000000004000084
:101B58000000000000000300030000000000000077
:101B68000301020000000000000200030001000061
:101B78000000000401010000000000000100030053
:091B88000200000000000401014C
:101B9200000E126E10AE06D00F6C101ED8B0102AB6
:101BA200010E126E0EAE06D00D6C0E1ED8B00E2AAD
:101BB200010E121A000E146E000E136E0F5010104A
:101BC200D8B41CD0010E116E04D0D8900F36103646
:101BD200112A10AEFAD7D890133614360F500D5C76
:101BE20010500E58D8A005D00F500D5E10500E5A4E
:101BF2001380D89010320F32112EEDD71250D8B474
:101C020004D0136C141ED8B0142A13C00DF014C0E3
:101C12000EF01200010EF3EC11F00009D8B40AD054
:101C220012C00DF013C00EF014C00FF015C010F06A
:101C32008DEC12F0010EE0EC11F00009D8B40AD0DC
:101C420012C00DF013C00EF014C00FF015C010F04A
:101C520061EC12F0010E2CEC12F00009D8B40AD09B
:101C620012C00DF013C00EF014C00FF015C010F02A
:101C720052EC12F0010E3FEC12F00009D8B412003F
:101C820012C00DF013C00EF014C00FF015C010F00A
:101C92009BEC12F012005C50D8B41200640E016E7C
:101CA200000E026E6D0E036E000E046E81A002D055
:101CB200010E01D0000E38EC0FF0620E016E000E24
:101CC200026E6C0E036E000E046E81A202D0010E33
:101CD20001D0000E38EC0FF0600E016E000E026EA5
:101CE2006E0E036E000E046E81A402D0010E01D0AE
:101CF200000E38EC0FF05E0E016E000E026E6B0EDF
:101D0200036E000E046E81A602D0010E01D0000EF9
:101D120038EC0FF0120059C00FF05AC010F0D890F2
:101D220010320F32D89010320F32D89010320F3258
:101D3200D8905A30126E5930116E0F50111A10503D
:101D4200121A5A380F0B111A000E121A5950111A80
:101D52005A50121A010E1114136E146A13C00FF0A6
:101D620014C010F00F0ED8900F361036E82EFBD7A5
:101D7200D8905A30126E5930116E0F501110596EA0
:101D8200105012105A6E59C00DF05AC00EF01200C7
:101D9200000E126E0EAE06D00D6C0E1ED8B00E2ABC
:101DA200010E126E10AE04D00F6C101ED8B0102AA5
:101DB2000F501010D8B418D0010E116E04D0D89064
:101DC2000F361036112A10AEFAD70F500D5C105094
:101DD2000E58D8A004D00F500D5E10500E5AD89055
:101DE20010320F32112EF1D71250D8B404D00D6C2C
:101DF2000E1ED8B00E2A0DC00DF00EC00EF012004D
:101E0200000E166E080E176E2CD0100E186E25D00E
:101E12001750020DF3CF0FF0F4CF10F00F500D2436
:101E2200D96E10500E20DA6EDECF11F0DDCF12F037
:101E320018C013F0010E146E000E156E132A03D093
:101E4200D89014361536132EFBD711501416125093
:101E5200151614501510D8A4162A18061828D8A436
:101E6200D7D717061728D8A4D0D716501200076E56
:101E72000750D8A423D001C0D9FF02C0DAFF010E57
:101E8200DBAE09D001C0D9FF02C0DAFF320EDE6E2E
:101E9200000EDD6E120001C0D9FF02C0DAFFDE06BD
:101EA200000EDD5ADE2818E1DE28D8A4120003C095
:101EB200D9FF04C0DAFF010EDF6E120001C0D9FFA4
:101EC20002C0DAFFFF0EDE6EFF0EDD6E03C0D9FF29
:101ED20004C0DAFF000EDF6E12000C0EF66E1B0E4F
:101EE200F76E000EF86E02EE00F010EE85F00900BB
:101EF200F5CFEEFFE550E150FAE1C60EF66E250E83
:101F0200F76E000EF86E00EEC8F010EE10F0090049
:101F1200F5CFEEFFE550E150FAE100EEB7F0110E19
:101F2200EE6AE806FDE100EE66F0090EEE6AE806EA
:101F3200FDE16F906F92000EF86E0001AFEF10F0AE
:101F4200080E196E2AD01950020DF3CF11F0F4CFFA
:101F520012F011500F24D96E12501020DA6EDECF1B
:101F620013F0DDCF14F01950020DF3CF15F0F4CFBA
:101F720016F015500D24D96E16500E20DA6EDECFF3
:101F820017F0DDCF18F0135017161450181617500B
:101F92001810D8B402D0010E120019061928D8A4BC
:101FA200D2D7000E12000DC013F00EC014F00FC0F5
:101FB20015F010C016F019D015C0F6FF16C0F7FFC5
:101FC200F86A13C0D9FF14C0DAFF050EF76403D014
:101FD2000800F55005D0F6CFE9FFF7CFEAFFEF5042
:101FE200DF6E154A162A134A142A1106D8A01206C1
:101FF2001128E2E11228D8B41200DED7000E186EC2
:10200200000E176EFF0E1424196EFF0E15201A6EA5
:1020120013D0175012240D6E185013200E6E195043
:1020220012240F6E1A501320106E39EC11F0174A59
:10203200182A1906D8A01A061950175C1850800AD7
:10204200166E1A50800A1658D8B01200E2D75B50AA
:10205200D8B412006AC001F0010E026E012A02D049
:10206200D8900236012EFCD70250056E6A50020D3E
:10207200B80EF324D96E000EF420DA6EDECF03F030
:10208200DDCF04F08268836805C080FF031C826E86
:10209200041C836E6A2A070E6A1612000DC013F022
:1020A2000EC014F00FC015F010C016F00FD015C0FE
:1020B200F6FF16C0F7FF13C0D9FF14C0DAFF0800FD
:1020C200F5CFDFFF154A162A134A142A1106D8A0A3
:1020D20012061128ECE11228D8B41200E8D70550F4
:1020E2000610D8B418D0010E076E04D0D890053669
:1020F2000636072A06AEFAD70550035C0650045886
:10210200D8A004D00550035E0650045AD890063277
:102112000532072EF1D703C003F004C004F0120009
:10212200D39E700ED312D350FC0B0209D36E0F0E46
:10213200C112000E926E000E806E9368000E816EC8
:10214200F19E000E946E000E826E000E956E000ED1
:10215200836E70EC12F0D09EF28E120091EC10F0B1
:10216200CDEC11F02BEC13F022EC06F05D6E12ECCC
:1021720013F00D500DEC13F0000E0E6E000E0D6EEE
:1021820008EC13F05D50D8B403D064EC05F0E8D746
:10219200B2EC0AF0E5D70600D9CF09F0DACF0AF09F
:1021A200F3CF0BF0F4CF0CF0F2A408D0F294FF0EB0
:1021B200D76E820ED66E5D50B5EC0CF00CC0F4FFFB
:1021C2000BC0F3FF0AC0DAFF09C0D9FF6F921100FA
:1021D200000E136E1350020DF3CF0FF0F4CF10F078
:1021E2000F500D24D96E10500E20DA6EDECF11F092
:1021F200DDCF12F012AE02D0010E1200132A070E2A
:102202001364E8D7000E1200DF0E176E7F0E186EF1
:1022120019EC12F00D0E0E6EAC0E0D6EDAEC12F021
:10222200000EE0EC11F00009D8B408D0000EF3EC77
:1022320011F00009D8B402D0010E1200000E1200F3
:102242000E6EA696A6840EC0A9FF0DC0A8FFA69E7C
:10225200A69C02EC13F0F29E550EA76EAA0EA76E74
:10226200A682F28EA6B2FED7A6B6EBD7A69412002D
:102272000DC0D9FF0EC0DAFFDF50116E0FC0D9FFBB
:1022820010C0DAFF0DC0E1FF0EC0E2FFDFCFE7FFB3
:102292000FC0D9FF10C0DAFF11C0DFFF12000DD04E
:1022A200D8900F34D96E1034DA6E0D50D9260E50F4
:1022B200DA22000EDE6E000EDD6E0F06D8A01006CA
:1022C2000F28EEE11028D8B41200EAD737C02CF05C
:1022D20038C02DF039C02EF03AC02FF03BC030F09C
:1022E2003CC031F03DC032F03EC033F03BEC0AF06E
:1022F2000009D8B41200EAD70E6E080E0F6E000E57
:10230200106ED8900E341034106ED8900E360D50D8
:10231200105CD8A002D00D50105E0F2EF2D71050D4
:102322001200196E17C00DF018C00EF01950100DE2
:102332003F0EF3240F6E7F0EF420106E000E126E0D
:10234200100E116E4FEC10F012000F6E0F50EBECEE
:1023520012F0106E1028D8A402D0000E106E105089
:10236200D8A405D0000E0D6E0F5021EC11F01050C4
:1023720012000D500F02F3CF11F0F4CF12F00D50F6
:102382001002F35012260E500F02F350122611C003
:102392000DF012C00EF0120064686568000E6D6EDA
:1023A20062686368000E6C6E60686168000E6E6E33
:1023B2005E685F68000E6B6E010E5C6E12000D6E41
:1023C2006C50D8B40DD0010E636EF40E626E0D50D7
:1023D200D8A402D0010E01D0000E6C6E010E1200C4
:1023E200000E12000D6E6D50D8B40DD0010E656E48
:1023F200F40E646E0D50D8A402D0010E01D0000E6E
:102402006D6E010E1200000E1200F3EC12F0B80E07
:102412000D6E000E0E6E17C00FF018C010F0000EF9
:10242200126E100E116ED4EC0FF02EEC13F012009F
:10243200F3EC12F0B80E0D6E000E0E6E17C00FF018
:1024420018C010F0000E126E100E116ED4EC0FF0C8
:102452002EEC13F012000D6E6E50D8B40DD0010E9A
:10246200616EF40E606E0D50D8A402D0010E01D040
:10247200000E6E6E010E1200000E12000D6E6B50F9
:10248200D8B40DD0010E5F6EF40E5E6E0D50D8A45E
:1024920002D0010E01D0000E6B6E010E1200000E72
:1024A20012000FC0D9FF10C0DAFF020EDE18D8B436
:1024B20012000DC0D9FF0EC0DAFF000EDF6E12004F
:1024C2000FC0D9FF10C0DAFF030EDE18D8B4120015
:1024D2000DC0D9FF0EC0DAFF010EDF6E1200D5501B
:1024E200F80B0309D56ED596D59AD58EFF0ED76E09
:1024F200820ED66EF294F28AD58E120020EE0EF083
:102502000D50D9260E50DA22DE50DE10D8B402D099
:10251200010E1200000E12000FC0D9FF10C0DAFF28
:10252200DE04D8B412000DC0D9FF0EC0DAFF030ECC
:10253200DF6E12000FC0D9FF10C0DAFFDF50D8B42F
:1025420012000DC0D9FF0EC0DAFF020EDF6E1200BC
:10255200EF0E176E7F0E186E19EC12F00D0E0E6E46
:10256200AC0E0D6EDAEC12F01200156E8CEC0EF061
:102572000D50166E15C00DF016507DEC11F0166E52
:10258200165012000DC0D9FF0EC0DAFFDE50DE1069
:10259200D8B402D0010E1200000E1200116E1050BB
:1025A2000F5CD8B0120010C00DF0115021EC11F0E8
:1025B20012000DC066F00EC067F066506710D8B406
:1025C2001200FBD7FFFFFFFFFFFFFFFFFFFFFFFF31
:1025D200FFFFFFFF0D6E0DC0A9FFA69EA69CA68061
:1025E200A85012005B50D8B4120002EC13F0000E97
:1025F2005B6E120001505724576E02505820586EDD
:102602001200000E686E6850D8A41200FCD70DC0EC
:1026120057F00EC058F012000D6E0DC059F05A6AF4
:10262200120057C00DF058C00EF0120001C057F052
:1026320002C058F0120057C001F058C002F0120058
:10264200010E0001B76F1200010E5C6E1200000E47
:102652005C6E1200010E5B6E1200010E5B6E1200C8
:06266200010E696E12007A
:107EFE000001000200040008001000200040008075
:107F0E0000000100020004000800100020004000E4
:107F1E008000FF008100BD0085008500AD0081005E
:107F2E00FFFF00810081008D00990081008100FF1C
:107F3E00001E001200120012001E000000000000C1
:107F4E000004000C00040004001E000000000000ED
:107F5E00001E0002001E0010001E000000000000A7
:107F6E00001E0002000E0002001E000000000000B5
:107F7E0000120012001E00020002000000000000AD
:107F8E00001E0010001E0002001E00000000000077
:107F9E00001E0010001E0012001E00000000000057
:107FAE00001E000200040008001000000000000087
:107FBE00001E0012001E0012001E00000000000035
:107FCE00001E0012001E0002000200000000000051
:107FDE000097FB55A99DAB0000DF0381B85F03003E
:107FEE00004188DFFB41880000DF9B55A991CA0044
:027FFE00000081
:020000040020DA
:08000000FFFFFFFFFFFFFFFF00
:020000040030CA
:0E000000FF081F1EFF8181FF0FC00FE00F40A1
:00000001FF
