:020000040000FA
:0400000007EF00F016
:0A0008005082D8ED0FF0D4EF0CF099
:1006000000010002000400080010002000400080EB
:10061000000001000200040008001000200040005B
:10062000801E001200120012001E000000000000D8
:100630000004000C00040004001E00000000000084
:10064000001E0002001E0010001E0000000000003E
:10065000001E0002000E0002001E0000000000004C
:1006600000120012001E0002000200000000000044
:10067000001E0010001E0002001E0000000000000E
:10068000001E0010001E0012001E000000000000EE
:10069000001E00020004000800100000000000001E
:1006A000001E0012001E0012001E000000000000CC
:1006B000001E0012001E00020002000000000000E8
:1006C00000FFFF818181BD8D85998581AD8181FF8D
:1006D000FF97FB55A99DAB0000DF0381B85F0300C6
:1006E000004188DFFB41880000DF9B55A991CA00CB
:1006F0000000B9D0000E166E17D0000E176E1750FE
:10070000020DF3CF10F0F4CF11F010500C24D96E7D
:1007100011500D20DA6ED890DE36DD36172A070E1E
:100720001764EDD7422A162A0F50165CD8B0120073
:10073000E4D7000E166E18D0000E176E1750020D7B
:10074000F3CF10F0F4CF11F010500C24D96E1150EB
:100750000D20DA6ED890DC32DD50DF32172A070E1A
:100760001764ECD74206162A0F50165CD8B0120058
:10077000E3D7000E166E34D0070E176E1750106EAA
:10078000116AD890103611360CC012F00DC013F05B
:100790001050122611501322FE0E1224D96EFF0E95
:1007A0001320DA6E1750020DF3CF14F0F4CF15F0CA
:1007B00014500C24E16E15500D20E26EDECFE6FFE2
:1007C000DDCFE5FF17061750D8A4D8D70CC0D9FF46
:1007D0000DC0DAFF000EDE6E000EDD6E432A162A13
:1007E0000F50165CD8B01200C7D7000E166E36D068
:1007F000000E176E1750106E116AD8901036113611
:100800000CC012F00DC013F010501226115013221C
:10081000020E1224D96E000E1320DA6E1750020D4C
:10082000F3CF14F0F4CF15F014500C24E16E1550F2
:100830000D20E26EDECFE6FFDDCFE5FF172A060EC4
:100840001764D8D720EE0EF00C50D9260D50DA22BE
:10085000000EDE6E000EDD6E4306162A0F50165C8B
:10086000D8B01200C5D70E50106E116A1150000A90
:10087000D8A412001050000AD8B43CD7010AD8B44A
:1008800058D7030AD8B4B1D7010AD8A4120071D737
:1008900030D001010105016F000E3C6EC70E0165ED
:1008A0003DD00F0E19D001010029006F010E3C6EE2
:1008B000070E006533D0C80E006130D0000E17D08F
:1008C00001010129016F020E3C6E0F0E016526D059
:1008D000C80E016123D0000E016F20D00101000578
:1008E000006F030E3C6EC70E006518D0070E006F38
:1008F00015D000018A51246E256A2550000AD8A41B
:100900000DD02450000AD8B4C4D7010AD8B4CBD72C
:10091000030AD8B4D5D7010AD8B4E0D7000E286EA0
:1009200045D028503FC024F0256A245E000E255A89
:10093000D89024362536010E2424D96E010E2520A8
:10094000DA6E28503FC026F0276A265E000E275A2E
:10095000D89026362736030E2624E16E010E272076
:10096000E26EDFCFE7FF28503FC024F0256A245E07
:10097000000E255AD89024362536000E2424D96E30
:10098000010E2520DA6E28503FC026F0276A265E29
:10099000000E275AD89026362736020E2624E16EFE
:1009A000010E2720E26EDFCFE7FF282A28503F5CA8
:1009B000D8B0B7D73D5001010119D8A408D03E5096
:1009C0000019D8A404D03F283F6E20EC0EF0040E8E
:1009D000286E1CD02850020D010EF324D96E010E92
:1009E000F420DA6EDE5001010119D8A40ED028508F
:1009F000020D000EF324D96E010EF420DA6E0051C0
:100A0000DE18D8A402D0010E3B6E282A28503F5C85
:100A1000D8B0E0D70DEC05F01200B00E0C6E000E51
:100A20000D6E000E0F6E080E0E6E9EEC0FF0000E97
:100A3000236E3FD02350020D000EF324D96E010E19
:100A4000F420DA6EDF50226E2250020DB00EF32435
:100A5000D96E000EF420DA6EDECF1DF0DDCF1EF071
:100A60002350020D010EF324D96E010EF420DA6E2C
:100A7000DF501F6E1F50020D010EF324F66E060E9E
:100A8000F420F76E0900F5CF20F00900F5CF21F032
:100A90001D5020121E5021122250020DB00EF324C0
:100AA000D96E000EF420DA6E20C0DEFF21C0DDFF1B
:100AB000232A23503F5CD8B0BDD7000E236E2350AD
:100AC0003E18D8A42AD02350020DB00EF324D96EBC
:100AD000000EF420DA6EDECF1DF0DDCF1EF03D50AB
:100AE000020D010EF324F66E060EF420F76E0900D7
:100AF000F5CF1FF00900F5CF20F01D501F121E503A
:100B000020122350020DB00EF324D96E000EF420F3
:100B1000DA6E1FC0DEFF20C0DDFF232A070E23642C
:100B2000CED7D00E0C6E000E0D6E000E0F6E080E9E
:100B30000E6E9EEC0FF0080E236E2350020DB00EC9
:100B4000F324D96E000EF420DA6E2350020DD00E7D
:100B5000F324E16E000EF420E26EDECFE6FFDDCF7F
:100B6000E5FF232A2350D8A4E8D7D00E136E000E39
:100B7000146E73EC0AF012000201B56FA50E0C6E34
:100B8000020E0D6E000E0F6E080E0E6E9EEC0FF034
:100B9000950E0C6E020E0D6E000E0F6E080E0E6E90
:100BA0009EEC0FF0B5C21AF01B6AB70E1C6E020E57
:100BB0001D6E000E1F6E0A0E1E6E97EC08F0000EE2
:100BC0000201BB6F36D0B70EBB25D96EDA6A020EB2
:100BD000DA22DF50D00FB66FA50E166E020E176E1A
:100BE000B651A5EC10F0A50E0C6E020E0D6E000EA7
:100BF0000E6E0201BB510208050DF3CF0FF079EC28
:100C000003F0A50E0C6E020E0D6E030E0E6EBBC22F
:100C10000FF079EC03F0A50E0C6E020E0D6E950E22
:100C20000E6E020E0F6E010E106E13EC08F0020134
:100C3000BB2B030EBB6109D0B70EBB25D96EDA6A98
:100C4000020EDA22DF50D8A4BED796EC11F0950E32
:100C5000136E020E146E73EC0AF0E2EC11F0000E4B
:100C6000E1EC10F00009D8A4FAD7000EE1EC10F086
:100C70000009D8B4FAD720EEE8F012EE85F00F0E96
:100C8000DBCFE3FFE806FCE2850E0C6E020E0D6E74
:100C9000950E0E6E020E0F6E020E106E13EC08F023
:100CA00096EC11F0950E136E020E146E73EC0AF0B2
:100CB000E2EC11F0000EE1EC10F00009D8A4FAD734
:100CC000DCEC11F0D9EC11F01200020E4918D8A496
:100CD0000FD018C00CF019C00DF016C00EF017C0E0
:100CE0000FF0000E116E100E106E7CEC0EF0120064
:100CF00018C00CF019C00DF0000E0F6E080E0E6E2D
:100D00009EEC0FF04904D8A405D04750D8B402D0C7
:100D1000000E1A6E000E246E000E256E2450020D79
:100D2000F3CF1BF0F4CF1CF01B501624D96E1C50CF
:100D30001720DA6EDECF1DF0DDCF1EF025C01FF0CC
:100D4000010E206E000E216E1F2A03D0D89020368F
:100D500021361F2EFBD71D5020161E502116205065
:100D60002110D8B441D01A04D8A407D02550435C30
:100D70004224226E4350245C06D04250255C43241A
:100D8000226E2450435C4224236E22BE2DD022507A
:100D9000800A780FD8A023BE27D02350800A700F76
:100DA000D8B022D023C01BF0010E1C6E000E1D6EA9
:100DB0001B2A03D0D8901C361D361B2EFBD7225081
:100DC0000C6E0D6A0CBE0D06000E0F6E020E0E6E3E
:100DD000F5EC10F00C501824D96E0D501920DA6E75
:100DE0001C50DE121D50DD12252A0F0E256496D7E9
:100DF000242A070E246490D71200070E4518D8A4A1
:100E00004CD0000E456E000E246E800E2424D96E48
:100E1000DA6A000EDA22FF0EDF6E190E2424D96E74
:100E2000DA6A000EDA22000EDF6E242A060E24642F
:100E3000ECD7000E246E000E206E11EC0DF0236E28
:100E400023C00CF00D6A000E0F6E070E0E6E4BECF9
:100E50000DF00C50236E190E2324D96EDA6A000EA1
:100E6000DA22DF50D8A412D0800E2424D96EDA6A98
:100E7000000EDA2223C0DFFF190E2324D96EDA6AAE
:100E8000000EDA22010EDF6E010E206E2050D8B463
:100E9000D4D7242A060E2464CED7800E4524D96EDA
:100EA000DA6A000EDA22DF50186E1850130D000EA9
:100EB000F324216E020EF420226E452A16C00CF097
:100EC00017C00DF021C00EF022C00FF0000E116E01
:100ED000100E106E7CEC0EF020EE10F02150D92692
:100EE0002250DA22DF50436E20EE11F02150D92635
:100EF0002250DA22DF50426E000E476E20EE12F0D2
:100F00002150D9262250DA22DF50496E000E0D6E94
:100F1000000E0C6EC5EC11F012000E04216E68D0AC
:100F20002128206E000E226E20C00FF021C010F08C
:100F30002250020DF3CF11F0F4CF12F011500C2417
:100F4000D96E12500D20DA6EDECF13F0DDCF14F023
:100F5000102A03D0D89014321332102EFBD7010E72
:100F60001316000E14160F2A03D0D8901336143619
:100F70000F2EFBD72250020DF3CF15F0F4CF16F051
:100F800015500C24D96E16500D20DA6EDECF17F0F6
:100F9000DDCF18F020C019F0010E1A6E000E1B6E86
:100FA000192A03D0D8901A361B36192EFBD71A1CD3
:100FB0001C6E1B1C1D6E17501C1618501D1613504E
:100FC0001C1214501D122250020DF3CF1EF0F4CF4C
:100FD0001FF01E500C24D96E1F500D20DA6E1CC05D
:100FE000DEFF1DC0DDFF222A070E22649DD72106E9
:100FF0000E50215CD8A094D7000E226E2250020D14
:10100000F3CF0FF0F4CF10F00F500C24D96E105026
:101010000D20DA6EFE0EDE16FF0EDD16222A070EFA
:101020002264ECD7120071D0000E176E1750020D1B
:10103000F3CF11F0F4CF12F011500C24D96E1250EE
:101040000D20DA6E1750020DF3CF13F0F4CF14F029
:1010500013500E24E16E14500F20E26EDECFE6FF37
:10106000DDCFE5FF172A070E1764E0D71200000E48
:10107000176E1750020DF3CF11F0F4CF12F011508C
:101080000C24D96E12500D20DA6EDECF13F0DDCFB6
:1010900014F01750020DF3CF15F0F4CF16F01550E1
:1010A0000E24D96E16500F20DA6E1350DE12145033
:1010B000DD12172A070E1764DCD71200000E176E18
:1010C0001750020DF3CF11F0F4CF12F011500C2491
:1010D000D96E12500D20DA6EDECF13F0DDCF14F092
:1010E0001750020DF3CF15F0F4CF16F015500E2463
:1010F000D96E16500F20DA6E1350DE1A1450DD1A16
:10110000172A070E1764DCD712001050116E126AEE
:101110001250000AD8A412001150000AD8B484D783
:10112000010AD8B4A4D7030AD8A41200C7D7000E66
:10113000266E000E256E000E226E1A501B10D8A4CB
:1011400011D01CC0D9FF1DC0DAFF300EDF6E254A5A
:10115000262A25501C24D96E26501D20DA6E000E3A
:10116000DF6E12001BAE42D00A0E1E181F10D8A44C
:101170003DD0010E226E1A6C1B1ED8B01B2A36D031
:101180001AC00CF01BC00DF01EC00EF01FC00FF0F7
:101190004BEC0DF00CC023F00DC024F024BE06D0A3
:1011A000245006E10A0E235CD8B002D0300E01D0E4
:1011B000570E2324206E000E2420216E25501C245F
:1011C000D96E26501D20DA6E20C0DFFF254A262A60
:1011D0001AC00CF01BC00DF01EC00EF01FC00FF0A7
:1011E000D0EC0BF00CC01AF00DC01BF01A501B1005
:1011F000D8A4C6D72250D8B40AD025501C24D96E02
:1012000026501D20DA6E2D0EDF6E254A262A255027
:101210001C24D96E26501D20DA6E000EDF6E1CC015
:1012200011F01DC012F025C013F026C014F0A7EC79
:101230000EF01200C10E136E060E146E73EC0AF05F
:10124000000EE1EC10F00009D8A4FAD7000ECDECA6
:1012500010F00009D8A4F4D7000EE1EC10F000095A
:10126000D8A406D0000ECDEC10F00009D8B4F4D705
:10127000000EE1EC10F0E806D8A41CD0000E2F6E92
:10128000000E2E6ED8902E34D96E2F34DA6E1D0ECD
:10129000D926000EDA22000EDE6EFF0EDD6E2E4A1B
:1012A0002F2A2FBEEFD72F5026E1080E2E5CD8B084
:1012B00022D0E8D7000ECDEC10F0E806D8A41BD061
:1012C000000E2F6E000E2E6ED8902E34D96E2F3455
:1012D000DA6E1D0ED926000EDA22FF0EDE6E000E2B
:1012E000DD6E2E4A2F2A2FBEEFD72F5004E1080EB5
:1012F0002E5CD8A0E9D796EC11F01D0E0C6E000EF6
:101300000D6E900E0E6E000E0F6E020E106E13EC30
:1013100008F0E2EC11F0000EE1EC10F00009D8A4A6
:10132000FAD7000ECDEC10F00009D8B41200F3D7B4
:1013300008EC11F0000EB9EC10F0326E3250BCEC3B
:1013400005F0000E4A6ED00E166E000E176EFDEC04
:1013500006F0D00E136E000E146E73EC0AF0010E40
:101360002F6E50EC0EF00009D8A405D03350D8A44D
:1013700002D0000E2F6E2F50D8B402D0010E01D033
:10138000000E336E4450D8B40AD0000E446ED00E16
:10139000256E000E266E08EC0AF0010E336E4650E4
:1013A000D8B408D0C00E236E000E246E12EC0CF0E0
:1013B000010E336E3350D8B420D0C00E0C6E000E28
:1013C0000D6EA00E0E6E000E0F6E000E106E13EC62
:1013D00008F0D00E0C6E000E0D6EA00E0E6E000EFC
:1013E0000F6E010E106E13EC08F0A00E136E000EBF
:1013F000146E73EC0AF0000E336E4A50D8B4AFD7B7
:1014000032C00EF048C00FF0000E68EC11F0120070
:10141000010E276E25C00CF026C00DF0BCEC0FF0BD
:101420000009D8B417D0000E276E25C00CF026C0D6
:101430000DF0C00E0E6E000E0F6E010E106E13EC4E
:1014400008F025C016F026C017F0FDEC06F0010EDE
:10145000466E41D025C00CF026C00DF0000E0E6E79
:10146000010E0F6E79EC03F025C00CF026C00DF0D4
:10147000C00E0E6E000E0F6EEEEC0DF00009D8B42B
:101480002AD0000E276E25C00CF026C00DF0010EEC
:101490000E6E010E0F6E79EC03F025C00CF026C025
:1014A0000DF0C00E0E6E000E0F6E010E106E13ECDE
:1014B00008F025C016F026C017F0FDEC06F025C098
:1014C0000CF026C00DF0C00E0E6E000E0F6EEEEC8E
:1014D0000DF04A6EBCD7000E0D6E000E0C6EC5EC02
:1014E00011F02750120096EC11F0900E0C6E000EC9
:1014F0000D6E000E0F6E080E0E6E9EEC0FF0000EBD
:101500001C6E000E1B6E1BC015F01CC016F0D89090
:101510001536163613C017F014C018F015501726DC
:101520001650182217C0F6FF18C0F7FFF86A050E0C
:10153000F76407D00900F5CF19F00900F5CF1AF0CC
:1015400008D0F6CFE9FFF7CFEAFFEECF19F0EECFE4
:101550001AF0D8901B34D96E1C34DA6E900ED9264E
:10156000000EDA2219C0DEFF1AC0DDFF1B4A1C2A5A
:101570001CBEC9D71C5004E1080E1B5CD8A0C3D701
:10158000E2EC11F012004150D8B41200D00E166EE9
:10159000000E176EB00E186E000E196E010E1A6E48
:1015A00065EC06F0D00E0C6E000E0D6EB9EC0DF071
:1015B000266EB00E0C6E000E0D6EB9EC0DF02618F6
:1015C000D8A41200B00E0C6E000E0D6EC00E0E6E82
:1015D000000E0F6EEEEC0DF00009D8A4120096EC90
:1015E00011F0B00E0C6E000E0D6ED00E0E6E000ED1
:1015F0000F6E000E106E13EC08F0E2EC11F0475085
:10160000D8A402D0010E01D0000E476E1200415046
:10161000D8B41200D00E0C6E000E0D6E45EC11F019
:101620000009D8A41200B00E0C6E000E0D6ED00E84
:101630000E6E000E0F6E000E116E100E106E7CEC12
:101640000EF0B00E0C6E000E0D6E020E0E6E010E40
:101650000F6E79EC03F0B00E0C6E000E0D6EC00E26
:101660000E6E000E0F6EEEEC0DF00009D8A4120005
:1016700096EC11F0B00E0C6E000E0D6ED00E0E6ECC
:10168000000E0F6E000E106E13EC08F0E2EC11F07D
:10169000010E466E12000000000000000100030071
:1016A0000100000000000400000000000001000133
:1016B0000001000100000000000400010000000023
:1016C0000000030001000100000000000400000011
:1016D0000000000000010001000300000000000401
:1016E00000000000000000000300030000000000F4
:1016F00000000301020000000000000200030001DE
:1017000000000000000401010000000000000100D2
:0B1710000300020000000000040101C3
:10171C004150D8B41200D00E0C6E000E0D6E37EC8A
:10172C0011F00009D8A41200D00E0C6E000E0D6E34
:10173C00B00E0E6E000E0F6E000E106E13EC08F055
:10174C00B00E0C6E000E0D6E030E0E6E010E0F6EB3
:10175C0079EC03F0B00E0C6E000E0D6EC00E0E6E1A
:10176C00000E0F6EEEEC0DF00009D8A4120096ECF2
:10177C0011F0B00E0C6E000E0D6ED00E0E6E000E33
:10178C000F6E000E106E13EC08F0E2EC11F0010E6F
:10179C00466E1200000E116E0FAE06D00E6C0F1EB0
:1017AC00D8B00F2A010E116E0DAE06D00C6C0D1EAA
:1017BC00D8B00D2A010E111A000E136E000E126E07
:1017CC000E500F10D8B41CD0010E106E04D0D8904F
:1017DC000E360F36102A0FAEFAD7D89012361336B3
:1017EC000E500C5C0F500D58D8A005D00E500C5E4E
:1017FC000F500D5A1280D8900F320E32102EEDD79A
:10180C001150D8B404D0126C131ED8B0132A12C0C5
:10181C000CF013C00DF01200000E2E6E000E2C6E8C
:10182C00000E2D6E2D50020DF3CF25F0F4CF26F0C7
:10183C0025502324D96E26502420DA6EDECF27F0D3
:10184C00DDCF28F02EC029F0010E2A6E000E2B6E73
:10185C00292A03D0D8902A362B36292EFBD727508D
:10186C002A1628502B162A502B10D8A42C2A2D2A95
:10187C00070E2D64D7D7080E2C18D8A409D023C076
:10188C000CF024C00DF02EC00EF08DEC07F0482AA1
:10189C002E2A0F0E2E64C2D7120000018807D8A082
:1018AC008907000E026E010E016EB3EC11F0D4EC40
:1018BC0011F0400E015C060E0258D8A006D0000EA6
:1018CC00026E000E016ECFEC11F0D4EC11F001C0E1
:1018DC0003F002C004F0030E066E200E056E41EC00
:1018EC000FF003500410D8B4A5EC11F0D4EC11F0A7
:1018FC0001C003F002C004F0000E066EC80E056EA7
:10190C0041EC0FF003500410D8B4ACEC11F094EC93
:10191C000CF0D0EC0EF0010E386E12003A50D8B428
:10192C001200E60E016E000E026E4E0E036E000EDD
:10193C00046E81A002D0010E01D0000E83EC0DF0DC
:10194C00E40E016E000E026E4D0E036E000E046E60
:10195C0081A202D0010E01D0000E83EC0DF0E20E3C
:10196C00016E000E026E4F0E036E000E046E81A40B
:10197C0002D0010E01D0000E83EC0DF0E00E016ED2
:10198C00000E026E4C0E036E000E046E81A602D089
:10199C00010E01D0000E83EC0DF01200960EF66EC7
:1019AC00160EF76E000EF86E02EE00F010EE85F0DB
:1019BC000900F5CFEEFFE550E150FAE10C0EF66EA2
:1019CC00230EF76E000EF86E00EEE8F010EE10F03D
:1019DC000900F5CFEEFFE550E150FAE101EE00F021
:1019EC0011EE00F0EE6AE550E150FCE1E250FAE154
:1019FC0000EE80F0680EEE6AE806FDE100EE34F0D1
:101A0C001C0EEE6AE806FDE150905092000EF86E46
:101A1C00000169EF10F036C00CF037C00DF0D89013
:101A2C000D320C32D8900D320C32D8900D320C3263
:101A3C00D89037300F6E36300E6E0C500E1A0D508B
:101A4C000F1A37380F0B0E1A000E0F1A36500E1ACB
:101A5C0037500F1A010E0E14106E116A10C00CF0D4
:101A6C0011C00DF00F0ED8900C360D36E82EFBD7AA
:101A7C00D89037300F6E36300E6E0C500E10366E0E
:101A8C000D500F10376E36501200000E116E0DAE49
:101A9C0006D00C6C0D1ED8B00D2A010E116E0FAEB7
:101AAC0004D00E6C0F1ED8B00F2A0E500F10D8B4E5
:101ABC0018D0010E106E04D0D8900E360F36102AA6
:101ACC000FAEFAD70E500C5C0F500D58D8A004D0A6
:101ADC000E500C5E0F500D5AD8900F320E32102E45
:101AEC00F1D71150D8B404D00C6C0D1ED8B00D2AFF
:101AFC000CC00CF00DC00DF01200076E0750D8A4EE
:101B0C0023D001C0D9FF02C0DAFF010EDBAE09D031
:101B1C0001C0D9FF02C0DAFF320EDE6E000EDD6EA0
:101B2C00120001C0D9FF02C0DAFFDE06000EDD5A3A
:101B3C00DE2818E1DE28D8A4120003C0D9FF04C0A7
:101B4C00DAFF010EDF6E120001C0D9FF02C0DAFF0E
:101B5C00FF0EDE6EFF0EDD6E03C0D9FF04C0DAFF90
:101B6C00000EDF6E1200000E156E000E166E000ECB
:101B7C00176E1650020DF3CF0EF0F4CF0FF00E507F
:101B8C000C24D96E0F500D20DA6EDECF10F0DDCFA5
:101B9C0011F017C012F0010E136E000E146E122A03
:101BAC0003D0D89013361436122EFBD710501316C0
:101BBC001150141613501410D8A4152A172A0F0EEE
:101BCC001764D7D7162A070E1664D1D715501200F2
:101BDC00000E186E1850020DF3CF10F0F4CF11F068
:101BEC0010500E24D96E11500F20DA6EDECF12F089
:101BFC00DDCF13F01850020DF3CF14F0F4CF15F025
:101C0C0014500C24D96E15500D20DA6EDECF16F060
:101C1C00DDCF17F01250161613501716165017105A
:101C2C00D8B402D0010E1200182A070E1864D2D7AD
:101C3C00000E1200000E156E080E51EC11F03E6EE7
:101C4C00100E51EC11F03D6E000E166E1BD016509E
:101C5C00020D000EF324D96E010EF420DA6E3E5004
:101C6C00DE18D8A40ED01650020D010EF324D96E36
:101C7C00010EF420DA6E3D50DE18D8A402D0010E0D
:101C8C00156E162A3F50165CD8A0E1D71504D8A4BF
:101C9C001200D0D7000E286E010E91EC10F0000946
:101CAC00D8B404D007EC0BF0010E286E010E7DECBD
:101CBC0010F00009D8B404D08EEC0BF0010E286E95
:101CCC00010ECDEC10F00009D8B404D0C3EC0AF02E
:101CDC00010E286E010EE1EC10F00009D8B404D00E
:101CEC005DEC11F0010E286E285012000CC012F0A1
:101CFC000DC013F00EC014F00FC015F019D014C0A5
:101D0C00F6FF15C0F7FFF86A12C0D9FF13C0DAFF4F
:101D1C00050EF76403D00800F55005D0F6CFE9FFA7
:101D2C00F7CFEAFFEF50DF6E144A152A124A132A36
:101D3C001006D8A011061028E2E11128D8B4120020
:101D4C00DED7000E176E000E166EFF0E1324186EE3
:101D5C00FF0E1420196E13D0165011240C6E175050
:101D6C0012200D6E185011240E6E195012200F6E89
:101D7C0027EC10F0164A172A1806D8A01906185086
:101D8C00165C1750800A156E1950800A1558D8B079
:101D9C001200E2D73950D8B412004BC001F0010E3A
:101DAC00026E012A02D0D8900236012EFCD70250C6
:101DBC00056E4B50020D900EF324D96E000EF420DC
:101DCC00DA6EDECF03F0DDCF04F0000E836E000E72
:101DDC00826E05C080FF031C826E041C836E4B2A2E
:101DEC00070E4B16120096EC11F0F4EC0FF0E2EC2F
:101DFC0011F0D00E0C6E000E0D6E000E0F6E080E54
:101E0C000E6E9EEC0FF0C00E0C6E000E0D6E000EE2
:101E1C000F6E080E0E6E9EEC0FF0B00E0C6E000ED8
:101E2C000D6E000E0F6E080E0E6E9EEC0FF098EC01
:101E3C0009F012000CC012F00DC013F00EC014F01B
:101E4C000FC015F00FD014C0F6FF15C0F7FF12C06D
:101E5C00D9FF13C0DAFF0800F5CFDFFF144A152AAB
:101E6C00124A132A1006D8A011061028ECE11128EA
:101E7C00D8B41200E8D705500610D8B418D0010E0B
:101E8C00076E04D0D89005360636072A06AEFAD768
:101E9C000550035C06500458D8A004D00550035ECE
:101EAC000650045AD89006320532072EF1D703C0DB
:101EBC0003F004C004F01200010EB9EC10F0296E0E
:101ECC002950BCEC05F0000E3B6E4004D8A404D0A5
:101EDC00000E406E48EC04F03B50D8B4F6D729C045
:101EEC000EF03FC00FF0010E68EC11F03F50BCEC4F
:101EFC0005F01200D39E700ED312D350FC0B0209C6
:101F0C00D36E0F0EC112000E926E000E806E93688F
:101F1C00000E816EF19E000E946E000E826E000E0D
:101F2C00956E000E836E28EC11F0D09EF28E12008E
:101F3C00000E126E11D01250020DF3CF10F0F4CF30
:101F4C0011F010500C24D96E11500D20DA6E000EC9
:101F5C00DE6E000EDD6E122A1250106E116A0E50DB
:101F6C00105C0F501158D8B01200E5D7000E126E4D
:101F7C001250020DF3CF0EF0F4CF0FF00E500C24D4
:101F8C00D96E0F500D20DA6EDECF10F0DDCF11F0D0
:101F9C0011AE02D0010E1200122A070E1264E8D7FD
:101FAC00000E12000600D9CF08F0DACF09F0F3CFFB
:101FBC000AF0F4CF0BF0F2A407D0F294FF0ED76E18
:101FCC00820ED66E53EC0CF00BC0F4FF0AC0F3FF7C
:101FDC0009C0DAFF08C0D9FF50921100D00E0C6E68
:101FEC00000E0D6E000E0F6E080E0E6E9EEC0FF0B6
:101FFC00C00E0C6E000E0D6E000E0F6E080E0E6EE7
:10200C009EEC0FF0000E0D6E000E0C6EC5EC11F078
:10201C0012000D6EA696A6840DC0A9FF0CC0A8FFD9
:10202C00A69EA69CBAEC11F0F29E550EA76EAA0EB7
:10203C00A76EA682F28EA6B2FED7A6B6EBD7A69452
:10204C0012000CC0D9FF0DC0DAFFDF50106E0EC0AD
:10205C00D9FF0FC0DAFF0CC0E1FF0DC0E2FFDFCFEC
:10206C00E7FF0EC0D9FF0FC0DAFF10C0DFFF120070
:10207C000001E669E769000E4E6EE469E569000E41
:10208C004D6EE269E369000E4F6E010EE16FF40EC6
:10209C00E06F000E4C6E010E3A6E12000D6E080EC3
:1020AC000E6E000E0F6ED8900D340F340F6ED8904C
:1020BC000D360C500F5CD8A002D00C500F5E0E2EBB
:1020CC00F2D70F50120080EC0FF0F4EC0FF03EEC56
:1020DC0010F0DFEC11F01AEC09F07DEC11F0CAEC09
:1020EC0011F00C50C0EC11F0F9EC0EF0FDD70C6EA9
:1020FC004D50D8B40ED0010E0001E56FF40EE46F14
:10210C000C50D8A402D0010E01D0000E4D6E010E61
:10211C001200000E12000C6E4E50D8B40ED0010EF0
:10212C000001E76FF40EE66F0C50D8A402D0010E3C
:10213C0001D0000E4E6E010E1200000E1200186E31
:10214C0016C00CF017C00DF01850100D210EF32412
:10215C000E6E060EF4200F6E000E116E100E106E29
:10216C0020EC0FF012000E6E0E508EEC11F00F6E74
:10217C000F28D8A402D0000E0F6E0F50D8A405D093
:10218C00000E0C6E0E500FEC10F00F5012000C6E77
:10219C004F50D8B40ED0010E0001E36FF40EE26F75
:1021AC000C50D8A402D0010E01D0000E4F6E010EBF
:1021BC001200000E12000C6E4C50D8B40ED0010E52
:1021CC000001E16FF40EE06F0C50D8A402D0010EA8
:1021DC0001D0000E4C6E010E1200000E12000C50BD
:1021EC000E02F3CF10F0F4CF11F00C500F02F3509D
:1021FC0011260D500E02F350112610C00CF011C018
:10220C000DF01200000E436E000E426E000E486E72
:10221C00000E446E000E466E00018769070E456E77
:10222C00010E416E1200D00E0C6E000E0D6ED10E12
:10223C000E6E060E0F6E000E116E100E106E7CECF4
:10224C000EF01200D550F80B0309D56ED596D59A21
:10225C00D58EFF0ED76E820ED66EF294F28AD58E84
:10226C00120020EE0EF00C50D9260D50DA22DE5062
:10227C00DE10D8B402D0010E1200000E12000CC0F9
:10228C00D9FF0DC0DAFFDE50DE10D8B402D0010E3B
:10229C001200000E1200126E11EC0DF0136E12C033
:1022AC000CF0135054EC10F0136E135012004150FC
:1022BC00D8B41200D00E256E000E266E08EC0AF073
:1022CC000009F6D7106E0F500E5CD8B012000FC07C
:1022DC000CF010500FEC10F012000CC088F00DC078
:1022EC0089F0000188518911D8B41200FAD79EECFC
:1022FC0011F00D0E0D6EAC0E0C6E73EC11F0120095
:10230C00FFFFFFFFFFFFFFFFFFFFFFFFFFFFFFFFD1
:10231C000C6E0CC0A9FFA69EA69CA680A85012000D
:10232C003950D8B41200BAEC11F0000E396E12000C
:10233C00E10E136E060E146E73EC0AF0120041508F
:10234C00D8B402D0010E446E415012004150D8B4A2
:10235C0002D0010E406E4150120001503424346EF4
:10236C0002503520356E1200000E386E3850D8A44D
:10237C001200FCD70C6E0CC036F0376A12000CC081
:10238C0034F00DC035F0120034C00CF035C00DF037
:10239C00120001C034F002C035F0120034C001F05C
:1023AC0035C002F01200010E3A6E1200000E3A6EA9
:0E23BC001200010E396E1200010E396E120071
:020000040020DA
:08000000FFFFFFFFFFFFFFFF00
:020000040030CA
:0E000000FF081F1EFF8181FF0FC00FE00F40A1
:00000001FF
